{
  "contractName": "FarmAsAServiceV1",
  "abi": [
    {
      "inputs": [
        {
          "internalType": "address",
          "name": "_farmAdmin",
          "type": "address"
        },
        {
          "internalType": "address",
          "name": "_rewardsToken",
          "type": "address"
        },
        {
          "internalType": "address",
          "name": "_stakingToken",
          "type": "address"
        },
        {
          "internalType": "uint256",
          "name": "_rewardsDurationInDays",
          "type": "uint256"
        },
        {
          "internalType": "uint256",
          "name": "_rawardsTokenDecimals",
          "type": "uint256"
        },
        {
          "internalType": "uint256",
          "name": "_RewardsAmount",
          "type": "uint256"
        }
      ],
      "stateMutability": "nonpayable",
      "type": "constructor"
    },
    {
      "anonymous": false,
      "inputs": [
        {
          "indexed": true,
          "internalType": "address",
          "name": "user",
          "type": "address"
        },
        {
          "indexed": false,
          "internalType": "uint256",
          "name": "reward",
          "type": "uint256"
        }
      ],
      "name": "RewardPaid",
      "type": "event"
    },
    {
      "anonymous": false,
      "inputs": [
        {
          "indexed": true,
          "internalType": "address",
          "name": "user",
          "type": "address"
        },
        {
          "indexed": false,
          "internalType": "uint256",
          "name": "amount",
          "type": "uint256"
        }
      ],
      "name": "Staked",
      "type": "event"
    },
    {
      "anonymous": false,
      "inputs": [
        {
          "indexed": true,
          "internalType": "address",
          "name": "user",
          "type": "address"
        },
        {
          "indexed": false,
          "internalType": "uint256",
          "name": "amount",
          "type": "uint256"
        }
      ],
      "name": "Withdrawn",
      "type": "event"
    },
    {
      "inputs": [],
      "name": "farmingEndDate",
      "outputs": [
        {
          "internalType": "uint256",
          "name": "",
          "type": "uint256"
        }
      ],
      "stateMutability": "view",
      "type": "function"
    },
    {
      "inputs": [],
      "name": "lastUpdateTime",
      "outputs": [
        {
          "internalType": "uint256",
          "name": "",
          "type": "uint256"
        }
      ],
      "stateMutability": "view",
      "type": "function"
    },
    {
      "inputs": [],
      "name": "rawardsTokenDecimals",
      "outputs": [
        {
          "internalType": "uint256",
          "name": "",
          "type": "uint256"
        }
      ],
      "stateMutability": "view",
      "type": "function"
    },
    {
      "inputs": [],
      "name": "rewardPerTokenStored",
      "outputs": [
        {
          "internalType": "uint256",
          "name": "",
          "type": "uint256"
        }
      ],
      "stateMutability": "view",
      "type": "function"
    },
    {
      "inputs": [],
      "name": "rewardRate",
      "outputs": [
        {
          "internalType": "uint256",
          "name": "",
          "type": "uint256"
        }
      ],
      "stateMutability": "view",
      "type": "function"
    },
    {
      "inputs": [
        {
          "internalType": "address",
          "name": "",
          "type": "address"
        }
      ],
      "name": "rewards",
      "outputs": [
        {
          "internalType": "uint256",
          "name": "",
          "type": "uint256"
        }
      ],
      "stateMutability": "view",
      "type": "function"
    },
    {
      "inputs": [],
      "name": "rewardsDuration",
      "outputs": [
        {
          "internalType": "uint256",
          "name": "",
          "type": "uint256"
        }
      ],
      "stateMutability": "view",
      "type": "function"
    },
    {
      "inputs": [],
      "name": "rewardsToken",
      "outputs": [
        {
          "internalType": "contract IERC20",
          "name": "",
          "type": "address"
        }
      ],
      "stateMutability": "view",
      "type": "function"
    },
    {
      "inputs": [],
      "name": "stakingToken",
      "outputs": [
        {
          "internalType": "contract IERC20",
          "name": "",
          "type": "address"
        }
      ],
      "stateMutability": "view",
      "type": "function"
    },
    {
      "inputs": [
        {
          "internalType": "address",
          "name": "",
          "type": "address"
        }
      ],
      "name": "userRewardPerTokenPaid",
      "outputs": [
        {
          "internalType": "uint256",
          "name": "",
          "type": "uint256"
        }
      ],
      "stateMutability": "view",
      "type": "function"
    },
    {
      "inputs": [],
      "name": "totalSupply",
      "outputs": [
        {
          "internalType": "uint256",
          "name": "",
          "type": "uint256"
        }
      ],
      "stateMutability": "view",
      "type": "function"
    },
    {
      "inputs": [
        {
          "internalType": "address",
          "name": "account",
          "type": "address"
        }
      ],
      "name": "balanceOf",
      "outputs": [
        {
          "internalType": "uint256",
          "name": "",
          "type": "uint256"
        }
      ],
      "stateMutability": "view",
      "type": "function"
    },
    {
      "inputs": [],
      "name": "farmingDurationLeft",
      "outputs": [
        {
          "internalType": "uint256",
          "name": "",
          "type": "uint256"
        }
      ],
      "stateMutability": "view",
      "type": "function"
    },
    {
      "inputs": [],
      "name": "rewardPerToken",
      "outputs": [
        {
          "internalType": "uint256",
          "name": "",
          "type": "uint256"
        }
      ],
      "stateMutability": "view",
      "type": "function"
    },
    {
      "inputs": [
        {
          "internalType": "address",
          "name": "account",
          "type": "address"
        }
      ],
      "name": "earned",
      "outputs": [
        {
          "internalType": "uint256",
          "name": "",
          "type": "uint256"
        }
      ],
      "stateMutability": "view",
      "type": "function"
    },
    {
      "inputs": [
        {
          "internalType": "uint256",
          "name": "amount",
          "type": "uint256"
        }
      ],
      "name": "stake",
      "outputs": [],
      "stateMutability": "nonpayable",
      "type": "function"
    },
    {
      "inputs": [
        {
          "internalType": "uint256",
          "name": "amount",
          "type": "uint256"
        }
      ],
      "name": "withdraw",
      "outputs": [],
      "stateMutability": "nonpayable",
      "type": "function"
    },
    {
      "inputs": [],
      "name": "getReward",
      "outputs": [],
      "stateMutability": "nonpayable",
      "type": "function"
    },
    {
      "inputs": [],
      "name": "exit",
      "outputs": [],
      "stateMutability": "nonpayable",
      "type": "function"
    },
    {
      "inputs": [
        {
          "internalType": "uint256",
          "name": "reward",
          "type": "uint256"
        }
      ],
      "name": "modifyRewardAmount",
      "outputs": [],
      "stateMutability": "nonpayable",
      "type": "function"
    }
  ],
  "bytecode": "0x60806040526000600555600060065560006007553480156200002057600080fd5b506040516200297738038062002977833981810160405260c08110156200004657600080fd5b81019080805190602001909291908051906020019092919080519060200190929190805190602001909291908051906020019092919080519060200190929190505050600160008190555084600260006101000a81548173ffffffffffffffffffffffffffffffffffffffff021916908373ffffffffffffffffffffffffffffffffffffffff16021790555083600360006101000a81548173ffffffffffffffffffffffffffffffffffffffff021916908373ffffffffffffffffffffffffffffffffffffffff16021790555085600160006101000a81548173ffffffffffffffffffffffffffffffffffffffff021916908373ffffffffffffffffffffffffffffffffffffffff1602179055506201518083026007819055506200017c60075442620001a960201b620014901790919060201c565b60058190555081600a0a6004819055506200019d816200023260201b60201c565b50505050505062000b1a565b60008082840190508381101562000228576040517f08c379a000000000000000000000000000000000000000000000000000000000815260040180806020018281038252601b8152602001807f536166654d6174683a206164646974696f6e206f766572666c6f77000000000081525060200191505060405180910390fd5b8091505092915050565b600160009054906101000a900473ffffffffffffffffffffffffffffffffffffffff1673ffffffffffffffffffffffffffffffffffffffff163373ffffffffffffffffffffffffffffffffffffffff1614620002da576040517f08c379a000000000000000000000000000000000000000000000000000000000815260040180806020018281038252602a81526020018062002916602a913960400191505060405180910390fd5b60006005544210620002ef5760006006819055505b620002ff6200063060201b60201c565b60098190555062000315620006e560201b60201c565b600881905550600073ffffffffffffffffffffffffffffffffffffffff168173ffffffffffffffffffffffffffffffffffffffff1614620003eb5762000361816200070560201b60201c565b600b60008373ffffffffffffffffffffffffffffffffffffffff1673ffffffffffffffffffffffffffffffffffffffff16815260200190815260200160002081905550600954600a60008373ffffffffffffffffffffffffffffffffffffffff1673ffffffffffffffffffffffffffffffffffffffff168152602001908152602001600020819055505b60055442111562000448576040517f08c379a0000000000000000000000000000000000000000000000000000000008152600401808060200182810382526037815260200180620029406037913960400191505060405180910390fd5b600062000466426005546200084160201b620015181790919060201c565b9050600062000486600654836200089360201b620015621790919060201c565b9050620004bd600754620004a98387620001a960201b620014901790919060201c565b6200091e60201b620015e81790919060201c565b6006819055506000600260009054906101000a900473ffffffffffffffffffffffffffffffffffffffff1673ffffffffffffffffffffffffffffffffffffffff166370a08231306040518263ffffffff1660e01b8152600401808273ffffffffffffffffffffffffffffffffffffffff16815260200191505060206040518083038186803b1580156200054f57600080fd5b505afa15801562000564573d6000803e3d6000fd5b505050506040513d60208110156200057b57600080fd5b81019080805190602001909291905050509050620005aa600754826200091e60201b620015e81790919060201c565b600654111562000622576040517f08c379a00000000000000000000000000000000000000000000000000000000081526004018080602001828103825260188152602001807f50726f76696465642072657761726420746f6f2068696768000000000000000081525060200191505060405180910390fd5b426008819055505050505050565b600080600c54141562000648576009549050620006e2565b620006df620006c8600c54620006b4600454620006a06006546200068c60085462000678620006e560201b60201c565b6200084160201b620015181790919060201c565b6200089360201b620015621790919060201c565b6200089360201b620015621790919060201c565b6200091e60201b620015e81790919060201c565b600954620001a960201b620014901790919060201c565b90505b90565b600062000700426005546200097060201b620016321760201c565b905090565b60006200083a600b60008473ffffffffffffffffffffffffffffffffffffffff1673ffffffffffffffffffffffffffffffffffffffff168152602001908152602001600020546200082660045462000812620007be600a60008973ffffffffffffffffffffffffffffffffffffffff1673ffffffffffffffffffffffffffffffffffffffff16815260200190815260200160002054620007aa6200063060201b60201c565b6200084160201b620015181790919060201c565b600d60008973ffffffffffffffffffffffffffffffffffffffff1673ffffffffffffffffffffffffffffffffffffffff168152602001908152602001600020546200089360201b620015621790919060201c565b6200091e60201b620015e81790919060201c565b620001a960201b620014901790919060201c565b9050919050565b60006200088b83836040518060400160405280601e81526020017f536166654d6174683a207375627472616374696f6e206f766572666c6f7700008152506200098b60201b60201c565b905092915050565b600080831415620008a8576000905062000918565b6000828402905082848281620008ba57fe5b041462000913576040517f08c379a0000000000000000000000000000000000000000000000000000000008152600401808060200182810382526021815260200180620028f56021913960400191505060405180910390fd5b809150505b92915050565b60006200096883836040518060400160405280601a81526020017f536166654d6174683a206469766973696f6e206279207a65726f00000000000081525062000a4f60201b60201c565b905092915050565b600081831062000981578162000983565b825b905092915050565b600083831115829062000a3c576040517f08c379a00000000000000000000000000000000000000000000000000000000081526004018080602001828103825283818151815260200191508051906020019080838360005b8381101562000a00578082015181840152602081019050620009e3565b50505050905090810190601f16801562000a2e5780820380516001836020036101000a031916815260200191505b509250505060405180910390fd5b5060008385039050809150509392505050565b6000808311829062000aff576040517f08c379a00000000000000000000000000000000000000000000000000000000081526004018080602001828103825283818151815260200191508051906020019080838360005b8381101562000ac357808201518184015260208101905062000aa6565b50505050905090810190601f16801562000af15780820380516001836020036101000a031916815260200191505b509250505060405180910390fd5b50600083858162000b0c57fe5b049050809150509392505050565b611dcb8062000b2a6000396000f3fe608060405234801561001057600080fd5b506004361061012b5760003560e01c80638193ae7e116100ad578063cd3daf9d11610071578063cd3daf9d146103fc578063d1af0c7d1461041a578063df136d651461044e578063e9fad8ee1461046c578063ff809f7e146104765761012b565b80638193ae7e1461031c5780638b8763471461033a578063a694fc3a14610392578063b1160fa8146103c0578063c8f33c91146103de5761012b565b80633d18b912116100f45780633d18b9121461024a57806349984b641461025457806370a082311461027257806372f702f3146102ca5780637b0a47ee146102fe5761012b565b80628cc262146101305780630700037d1461018857806318160ddd146101e05780632e1a7d4d146101fe578063386a95251461022c575b600080fd5b6101726004803603602081101561014657600080fd5b81019080803573ffffffffffffffffffffffffffffffffffffffff1690602001909291905050506104a4565b6040518082815260200191505060405180910390f35b6101ca6004803603602081101561019e57600080fd5b81019080803573ffffffffffffffffffffffffffffffffffffffff1690602001909291905050506105bc565b6040518082815260200191505060405180910390f35b6101e86105d4565b6040518082815260200191505060405180910390f35b61022a6004803603602081101561021457600080fd5b81019080803590602001909291905050506105de565b005b610234610922565b6040518082815260200191505060405180910390f35b610252610928565b005b61025c610bd9565b6040518082815260200191505060405180910390f35b6102b46004803603602081101561028857600080fd5b81019080803573ffffffffffffffffffffffffffffffffffffffff169060200190929190505050610bdf565b6040518082815260200191505060405180910390f35b6102d2610c28565b604051808273ffffffffffffffffffffffffffffffffffffffff16815260200191505060405180910390f35b610306610c4e565b6040518082815260200191505060405180910390f35b610324610c54565b6040518082815260200191505060405180910390f35b61037c6004803603602081101561035057600080fd5b81019080803573ffffffffffffffffffffffffffffffffffffffff169060200190929190505050610c5a565b6040518082815260200191505060405180910390f35b6103be600480360360208110156103a857600080fd5b8101908080359060200190929190505050610c72565b005b6103c8610fb8565b6040518082815260200191505060405180910390f35b6103e6610fcb565b6040518082815260200191505060405180910390f35b610404610fd1565b6040518082815260200191505060405180910390f35b610422611059565b604051808273ffffffffffffffffffffffffffffffffffffffff16815260200191505060405180910390f35b61045661107f565b6040518082815260200191505060405180910390f35b610474611085565b005b6104a26004803603602081101561048c57600080fd5b81019080803590602001909291905050506110d7565b005b60006105b5600b60008473ffffffffffffffffffffffffffffffffffffffff1673ffffffffffffffffffffffffffffffffffffffff168152602001908152602001600020546105a760045461059961054b600a60008973ffffffffffffffffffffffffffffffffffffffff1673ffffffffffffffffffffffffffffffffffffffff1681526020019081526020016000205461053d610fd1565b61151890919063ffffffff16565b600d60008973ffffffffffffffffffffffffffffffffffffffff1673ffffffffffffffffffffffffffffffffffffffff1681526020019081526020016000205461156290919063ffffffff16565b6115e890919063ffffffff16565b61149090919063ffffffff16565b9050919050565b600b6020528060005260406000206000915090505481565b6000600c54905090565b60026000541415610657576040517f08c379a000000000000000000000000000000000000000000000000000000000815260040180806020018281038252601f8152602001807f5265656e7472616e637947756172643a207265656e7472616e742063616c6c0081525060200191505060405180910390fd5b60026000819055503360055442106106725760006006819055505b61067a610fd1565b600981905550610688610fb8565b600881905550600073ffffffffffffffffffffffffffffffffffffffff168173ffffffffffffffffffffffffffffffffffffffff1614610755576106cb816104a4565b600b60008373ffffffffffffffffffffffffffffffffffffffff1673ffffffffffffffffffffffffffffffffffffffff16815260200190815260200160002081905550600954600a60008373ffffffffffffffffffffffffffffffffffffffff1673ffffffffffffffffffffffffffffffffffffffff168152602001908152602001600020819055505b600082116107cb576040517f08c379a00000000000000000000000000000000000000000000000000000000081526004018080602001828103825260118152602001807f43616e6e6f74207769746864726177203000000000000000000000000000000081525060200191505060405180910390fd5b6107e082600c5461151890919063ffffffff16565b600c8190555061083882600d60003373ffffffffffffffffffffffffffffffffffffffff1673ffffffffffffffffffffffffffffffffffffffff1681526020019081526020016000205461151890919063ffffffff16565b600d60003373ffffffffffffffffffffffffffffffffffffffff1673ffffffffffffffffffffffffffffffffffffffff168152602001908152602001600020819055506108c83383600360009054906101000a900473ffffffffffffffffffffffffffffffffffffffff1673ffffffffffffffffffffffffffffffffffffffff1661164b9092919063ffffffff16565b3373ffffffffffffffffffffffffffffffffffffffff167f7084f5476618d8e60b11ef0d7d3f06914655adb8793e28ff7f018d4c76d505d5836040518082815260200191505060405180910390a250600160008190555050565b60075481565b600260005414156109a1576040517f08c379a000000000000000000000000000000000000000000000000000000000815260040180806020018281038252601f8152602001807f5265656e7472616e637947756172643a207265656e7472616e742063616c6c0081525060200191505060405180910390fd5b60026000819055503360055442106109bc5760006006819055505b6109c4610fd1565b6009819055506109d2610fb8565b600881905550600073ffffffffffffffffffffffffffffffffffffffff168173ffffffffffffffffffffffffffffffffffffffff1614610a9f57610a15816104a4565b600b60008373ffffffffffffffffffffffffffffffffffffffff1673ffffffffffffffffffffffffffffffffffffffff16815260200190815260200160002081905550600954600a60008373ffffffffffffffffffffffffffffffffffffffff1673ffffffffffffffffffffffffffffffffffffffff168152602001908152602001600020819055505b6000600b60003373ffffffffffffffffffffffffffffffffffffffff1673ffffffffffffffffffffffffffffffffffffffff1681526020019081526020016000205490506000811115610bcd576000600b60003373ffffffffffffffffffffffffffffffffffffffff1673ffffffffffffffffffffffffffffffffffffffff16815260200190815260200160002081905550610b7e3382600260009054906101000a900473ffffffffffffffffffffffffffffffffffffffff1673ffffffffffffffffffffffffffffffffffffffff1661164b9092919063ffffffff16565b3373ffffffffffffffffffffffffffffffffffffffff167fe2403640ba68fed3a2f88b7557551d1993f84b99bb10ff833f0cf8db0c5e0486826040518082815260200191505060405180910390a25b50506001600081905550565b60055481565b6000600d60008373ffffffffffffffffffffffffffffffffffffffff1673ffffffffffffffffffffffffffffffffffffffff168152602001908152602001600020549050919050565b600360009054906101000a900473ffffffffffffffffffffffffffffffffffffffff1681565b60065481565b60045481565b600a6020528060005260406000206000915090505481565b60026000541415610ceb576040517f08c379a000000000000000000000000000000000000000000000000000000000815260040180806020018281038252601f8152602001807f5265656e7472616e637947756172643a207265656e7472616e742063616c6c0081525060200191505060405180910390fd5b6002600081905550336005544210610d065760006006819055505b610d0e610fd1565b600981905550610d1c610fb8565b600881905550600073ffffffffffffffffffffffffffffffffffffffff168173ffffffffffffffffffffffffffffffffffffffff1614610de957610d5f816104a4565b600b60008373ffffffffffffffffffffffffffffffffffffffff1673ffffffffffffffffffffffffffffffffffffffff16815260200190815260200160002081905550600954600a60008373ffffffffffffffffffffffffffffffffffffffff1673ffffffffffffffffffffffffffffffffffffffff168152602001908152602001600020819055505b60008211610e5f576040517f08c379a000000000000000000000000000000000000000000000000000000000815260040180806020018281038252600e8152602001807f43616e6e6f74207374616b65203000000000000000000000000000000000000081525060200191505060405180910390fd5b610e7482600c5461149090919063ffffffff16565b600c81905550610ecc82600d60003373ffffffffffffffffffffffffffffffffffffffff1673ffffffffffffffffffffffffffffffffffffffff1681526020019081526020016000205461149090919063ffffffff16565b600d60003373ffffffffffffffffffffffffffffffffffffffff1673ffffffffffffffffffffffffffffffffffffffff16815260200190815260200160002081905550610f5e333084600360009054906101000a900473ffffffffffffffffffffffffffffffffffffffff1673ffffffffffffffffffffffffffffffffffffffff166116ed909392919063ffffffff16565b3373ffffffffffffffffffffffffffffffffffffffff167f9e71bc8eea02a63969f509818f2dafb9254532904319f9dbda79b67bd34a5f3d836040518082815260200191505060405180910390a250600160008190555050565b6000610fc642600554611632565b905090565b60085481565b600080600c541415610fe7576009549050611056565b611053611042600c5461103460045461102660065461101860085461100a610fb8565b61151890919063ffffffff16565b61156290919063ffffffff16565b61156290919063ffffffff16565b6115e890919063ffffffff16565b60095461149090919063ffffffff16565b90505b90565b600260009054906101000a900473ffffffffffffffffffffffffffffffffffffffff1681565b60095481565b6110cd600d60003373ffffffffffffffffffffffffffffffffffffffff1673ffffffffffffffffffffffffffffffffffffffff168152602001908152602001600020546105de565b6110d5610928565b565b600160009054906101000a900473ffffffffffffffffffffffffffffffffffffffff1673ffffffffffffffffffffffffffffffffffffffff163373ffffffffffffffffffffffffffffffffffffffff161461117d576040517f08c379a000000000000000000000000000000000000000000000000000000000815260040180806020018281038252602a815260200180611d0b602a913960400191505060405180910390fd5b600060055442106111915760006006819055505b611199610fd1565b6009819055506111a7610fb8565b600881905550600073ffffffffffffffffffffffffffffffffffffffff168173ffffffffffffffffffffffffffffffffffffffff1614611274576111ea816104a4565b600b60008373ffffffffffffffffffffffffffffffffffffffff1673ffffffffffffffffffffffffffffffffffffffff16815260200190815260200160002081905550600954600a60008373ffffffffffffffffffffffffffffffffffffffff1673ffffffffffffffffffffffffffffffffffffffff168152602001908152602001600020819055505b6005544211156112cf576040517f08c379a0000000000000000000000000000000000000000000000000000000008152600401808060200182810382526037815260200180611d356037913960400191505060405180910390fd5b60006112e64260055461151890919063ffffffff16565b905060006112ff6006548361156290919063ffffffff16565b905061132860075461131a838761149090919063ffffffff16565b6115e890919063ffffffff16565b6006819055506000600260009054906101000a900473ffffffffffffffffffffffffffffffffffffffff1673ffffffffffffffffffffffffffffffffffffffff166370a08231306040518263ffffffff1660e01b8152600401808273ffffffffffffffffffffffffffffffffffffffff16815260200191505060206040518083038186803b1580156113b957600080fd5b505afa1580156113cd573d6000803e3d6000fd5b505050506040513d60208110156113e357600080fd5b8101908080519060200190929190505050905061140b600754826115e890919063ffffffff16565b6006541115611482576040517f08c379a00000000000000000000000000000000000000000000000000000000081526004018080602001828103825260188152602001807f50726f76696465642072657761726420746f6f2068696768000000000000000081525060200191505060405180910390fd5b426008819055505050505050565b60008082840190508381101561150e576040517f08c379a000000000000000000000000000000000000000000000000000000000815260040180806020018281038252601b8152602001807f536166654d6174683a206164646974696f6e206f766572666c6f77000000000081525060200191505060405180910390fd5b8091505092915050565b600061155a83836040518060400160405280601e81526020017f536166654d6174683a207375627472616374696f6e206f766572666c6f7700008152506117ae565b905092915050565b60008083141561157557600090506115e2565b600082840290508284828161158657fe5b04146115dd576040517f08c379a0000000000000000000000000000000000000000000000000000000008152600401808060200182810382526021815260200180611cea6021913960400191505060405180910390fd5b809150505b92915050565b600061162a83836040518060400160405280601a81526020017f536166654d6174683a206469766973696f6e206279207a65726f00000000000081525061186e565b905092915050565b60008183106116415781611643565b825b905092915050565b6116e88363a9059cbb60e01b8484604051602401808373ffffffffffffffffffffffffffffffffffffffff16815260200182815260200192505050604051602081830303815290604052907bffffffffffffffffffffffffffffffffffffffffffffffffffffffff19166020820180517bffffffffffffffffffffffffffffffffffffffffffffffffffffffff8381831617835250505050611934565b505050565b6117a8846323b872dd60e01b858585604051602401808473ffffffffffffffffffffffffffffffffffffffff1681526020018373ffffffffffffffffffffffffffffffffffffffff1681526020018281526020019350505050604051602081830303815290604052907bffffffffffffffffffffffffffffffffffffffffffffffffffffffff19166020820180517bffffffffffffffffffffffffffffffffffffffffffffffffffffffff8381831617835250505050611934565b50505050565b600083831115829061185b576040517f08c379a00000000000000000000000000000000000000000000000000000000081526004018080602001828103825283818151815260200191508051906020019080838360005b83811015611820578082015181840152602081019050611805565b50505050905090810190601f16801561184d5780820380516001836020036101000a031916815260200191505b509250505060405180910390fd5b5060008385039050809150509392505050565b6000808311829061191a576040517f08c379a00000000000000000000000000000000000000000000000000000000081526004018080602001828103825283818151815260200191508051906020019080838360005b838110156118df5780820151818401526020810190506118c4565b50505050905090810190601f16801561190c5780820380516001836020036101000a031916815260200191505b509250505060405180910390fd5b50600083858161192657fe5b049050809150509392505050565b6060611996826040518060400160405280602081526020017f5361666545524332303a206c6f772d6c6576656c2063616c6c206661696c65648152508573ffffffffffffffffffffffffffffffffffffffff16611a239092919063ffffffff16565b9050600081511115611a1e578080602001905160208110156119b757600080fd5b8101908080519060200190929190505050611a1d576040517f08c379a000000000000000000000000000000000000000000000000000000000815260040180806020018281038252602a815260200180611d6c602a913960400191505060405180910390fd5b5b505050565b6060611a328484600085611a3b565b90509392505050565b606082471015611a96576040517f08c379a0000000000000000000000000000000000000000000000000000000008152600401808060200182810382526026815260200180611cc46026913960400191505060405180910390fd5b611a9f85611be4565b611b11576040517f08c379a000000000000000000000000000000000000000000000000000000000815260040180806020018281038252601d8152602001807f416464726573733a2063616c6c20746f206e6f6e2d636f6e747261637400000081525060200191505060405180910390fd5b600060608673ffffffffffffffffffffffffffffffffffffffff1685876040518082805190602001908083835b60208310611b615780518252602082019150602081019050602083039250611b3e565b6001836020036101000a03801982511681845116808217855250505050505090500191505060006040518083038185875af1925050503d8060008114611bc3576040519150601f19603f3d011682016040523d82523d6000602084013e611bc8565b606091505b5091509150611bd8828286611bf7565b92505050949350505050565b600080823b905060008111915050919050565b60608315611c0757829050611cbc565b600083511115611c1a5782518084602001fd5b816040517f08c379a00000000000000000000000000000000000000000000000000000000081526004018080602001828103825283818151815260200191508051906020019080838360005b83811015611c81578082015181840152602081019050611c66565b50505050905090810190601f168015611cae5780820380516001836020036101000a031916815260200191505b509250505060405180910390fd5b939250505056fe416464726573733a20696e73756666696369656e742062616c616e636520666f722063616c6c536166654d6174683a206d756c7469706c69636174696f6e206f766572666c6f774f6e6c7920746865206661726d2061646d696e20697320616c6c6f77656420746f20646f207468697321546865206661726d2068617320616c726561647920656e6465642c20796f752063616e6e6f7420616464206e65772072657761726473215361666545524332303a204552433230206f7065726174696f6e20646964206e6f742073756363656564a264697066735822122025f0956bf623db4931ac03927365c09d896f29964f2694abc1e61004666fed7664736f6c63430007030033536166654d6174683a206d756c7469706c69636174696f6e206f766572666c6f774f6e6c7920746865206661726d2061646d696e20697320616c6c6f77656420746f20646f207468697321546865206661726d2068617320616c726561647920656e6465642c20796f752063616e6e6f7420616464206e6577207265776172647321",
  "immutableReferences": {},
  "source": "// SPDX-License-Identifier: MIT\r\n\r\npragma solidity ^0.7.3;\r\n\r\nimport \"@openzeppelin/contracts/token/ERC20/IERC20.sol\";\r\nimport \"@openzeppelin/contracts/math/Math.sol\";\r\nimport \"@openzeppelin/contracts/math/SafeMath.sol\";\r\nimport \"@openzeppelin/contracts/token/ERC20/SafeERC20.sol\";\r\nimport \"@openzeppelin/contracts/utils/ReentrancyGuard.sol\";\r\n\r\ncontract FarmAsAServiceV1 is ReentrancyGuard {\r\n    using SafeMath for uint;\r\n    using SafeERC20 for IERC20;\r\n\r\n    /*********************************\r\n        Contract State variables \r\n    *********************************/\r\n\r\n    address farmAdmin;\r\n\r\n    IERC20 public rewardsToken;\r\n    IERC20 public stakingToken;\r\n    uint public rawardsTokenDecimals;\r\n    uint public farmingEndDate = 0;\r\n    uint public rewardRate = 0;\r\n    uint public rewardsDuration = 0;\r\n    uint public lastUpdateTime;\r\n    uint public rewardPerTokenStored;\r\n\r\n    mapping(address => uint) public userRewardPerTokenPaid;\r\n    mapping(address => uint) public rewards;\r\n\r\n    uint private _totalSupply;\r\n    mapping(address => uint) private _balances;\r\n\r\n    /***********************\r\n            Modifiers \r\n    ***********************/\r\n\r\n    modifier onlyAdmin() {\r\n        require(msg.sender == farmAdmin, 'Only the farm admin is allowed to do this!');\r\n        _;\r\n    }\r\n\r\n    modifier updateReward(address account) {\r\n        if (block.timestamp >= farmingEndDate) {\r\n            rewardRate = 0;\r\n        }\r\n\r\n        rewardPerTokenStored = rewardPerToken();\r\n        lastUpdateTime = farmingDurationLeft();\r\n        if (account != address(0)) {\r\n            rewards[account] = earned(account);\r\n            userRewardPerTokenPaid[account] = rewardPerTokenStored;\r\n        }\r\n        _;\r\n    }\r\n\r\n    constructor(\r\n        address _farmAdmin,\r\n        address _rewardsToken,\r\n        address _stakingToken,\r\n        uint _rewardsDurationInDays,\r\n        uint _rawardsTokenDecimals,\r\n        uint _RewardsAmount\r\n    ) {\r\n        // Set token\r\n        rewardsToken = IERC20(_rewardsToken);\r\n        stakingToken = IERC20(_stakingToken);\r\n\r\n        // Set farm admin\r\n        farmAdmin = _farmAdmin;\r\n\r\n        // Set farm duration\r\n        rewardsDuration = _rewardsDurationInDays * 86400;\r\n        farmingEndDate = block.timestamp.add(rewardsDuration);\r\n        rawardsTokenDecimals = 10**_rawardsTokenDecimals;\r\n        modifyRewardAmount(_RewardsAmount);\r\n    }\r\n\r\n    /**************************\r\n           view returns \r\n    **************************/\r\n\r\n    function totalSupply() external view returns (uint) {\r\n        return _totalSupply;\r\n    }\r\n\r\n    function balanceOf(address account) external view returns (uint) {\r\n        return _balances[account];\r\n    }\r\n\r\n    function farmingDurationLeft() public view returns (uint) {\r\n        return Math.min(block.timestamp, farmingEndDate);\r\n    }\r\n\r\n    function rewardPerToken() public view returns (uint) {\r\n        if (_totalSupply == 0) {\r\n            return rewardPerTokenStored;\r\n        }\r\n        return rewardPerTokenStored.add(\r\n            farmingDurationLeft().sub(lastUpdateTime).mul(rewardRate).mul(rawardsTokenDecimals).div(_totalSupply)\r\n        );\r\n    }\r\n\r\n    function earned(address account) public view returns (uint) {\r\n        return _balances[account].mul(rewardPerToken().sub(userRewardPerTokenPaid[account])).div(rawardsTokenDecimals).add(rewards[account]);\r\n    }\r\n\r\n    /**************************\r\n             Functions \r\n    **************************/\r\n\r\n    function stake(uint amount) external nonReentrant updateReward(msg.sender) {\r\n        require(amount > 0, \"Cannot stake 0\");\r\n        _totalSupply = _totalSupply.add(amount);\r\n        _balances[msg.sender] = _balances[msg.sender].add(amount);\r\n        stakingToken.safeTransferFrom(msg.sender, address(this), amount);\r\n        emit Staked(msg.sender, amount);\r\n    }\r\n\r\n    function withdraw(uint amount) public nonReentrant updateReward(msg.sender) {\r\n        require(amount > 0, \"Cannot withdraw 0\");\r\n        _totalSupply = _totalSupply.sub(amount);\r\n        _balances[msg.sender] = _balances[msg.sender].sub(amount);\r\n        stakingToken.safeTransfer(msg.sender, amount);\r\n        emit Withdrawn(msg.sender, amount);\r\n    }\r\n\r\n    function getReward() public nonReentrant updateReward(msg.sender) {\r\n        uint reward = rewards[msg.sender];\r\n        if (reward > 0) {\r\n            rewards[msg.sender] = 0;\r\n            rewardsToken.safeTransfer(msg.sender, reward);\r\n            emit RewardPaid(msg.sender, reward);\r\n        }\r\n    }\r\n\r\n    function exit() external {\r\n        withdraw(_balances[msg.sender]);\r\n        getReward();\r\n    }\r\n\r\n    /**************************\r\n        Only admin functions \r\n    **************************/\r\n    function modifyRewardAmount(uint reward) public onlyAdmin updateReward(address(0)) {\r\n        require(block.timestamp <= farmingEndDate, 'The farm has already ended, you cannot add new rewards!');\r\n\r\n        uint remainingTime = farmingEndDate.sub(block.timestamp);\r\n        uint rewardsLeftOver = remainingTime.mul(rewardRate);\r\n        rewardRate = reward.add(rewardsLeftOver).div(rewardsDuration);\r\n\r\n        // Ensure the provided reward amount is not more than the balance in the contract.\r\n        // This keeps the reward rate in the right range, preventing overflows due to\r\n        // very high values of rewardRate in the earned and rewardsPerToken functions;\r\n        // Reward + leftover must be less than 2^256 / 10^18 to avoid overflow.\r\n        uint balance = rewardsToken.balanceOf(address(this));\r\n        require(rewardRate <= balance.div(rewardsDuration), \"Provided reward too high\");\r\n\r\n        lastUpdateTime = block.timestamp;\r\n    }\r\n\r\n    /**************************\r\n             Events \r\n    **************************/\r\n    event Staked(address indexed user, uint amount);\r\n    event Withdrawn(address indexed user, uint amount);\r\n    event RewardPaid(address indexed user, uint reward);\r\n}",
  "sourcePath": "C:\\Users\\Roberto\\Documents\\Programmeer Projecten\\Solidity - ETH\\DefiHub\\contracts\\FarmAsAServiceV1.sol",
  "compiler": {
    "name": "solc",
    "version": "0.7.3+commit.9bfce1f6.Emscripten.clang"
  },
  "schemaVersion": "3.3.1",
  "updatedAt": "2020-12-21T20:53:47.489Z",
  "devdoc": {
    "kind": "dev",
    "methods": {},
    "version": 1
  },
  "userdoc": {
    "kind": "user",
    "methods": {},
    "version": 1
  }
}