{
  "contractName": "FarmAsAServiceV1Factory",
  "abi": [
    {
      "inputs": [
        {
          "internalType": "address",
          "name": "_defiHubTokenAddress",
          "type": "address"
        }
      ],
      "stateMutability": "nonpayable",
      "type": "constructor"
    },
    {
      "anonymous": false,
      "inputs": [
        {
          "indexed": false,
          "internalType": "address",
          "name": "farm1",
          "type": "address"
        },
        {
          "indexed": false,
          "internalType": "address",
          "name": "farm2",
          "type": "address"
        }
      ],
      "name": "FarmsCreated",
      "type": "event"
    },
    {
      "anonymous": false,
      "inputs": [
        {
          "indexed": false,
          "internalType": "uint256",
          "name": "amount",
          "type": "uint256"
        }
      ],
      "name": "rewardsAdded",
      "type": "event"
    },
    {
      "inputs": [
        {
          "internalType": "address",
          "name": "_rewardsToken",
          "type": "address"
        },
        {
          "internalType": "address",
          "name": "_stakingToken",
          "type": "address"
        },
        {
          "internalType": "uint256",
          "name": "_rewardsDurationInDays",
          "type": "uint256"
        },
        {
          "internalType": "uint256",
          "name": "_rawardsTokenDecimals",
          "type": "uint256"
        },
        {
          "internalType": "uint256",
          "name": "_totalRwards",
          "type": "uint256"
        }
      ],
      "name": "createNewFarm",
      "outputs": [
        {
          "internalType": "address[2]",
          "name": "",
          "type": "address[2]"
        }
      ],
      "stateMutability": "nonpayable",
      "type": "function"
    },
    {
      "inputs": [
        {
          "internalType": "address",
          "name": "farmToUpdate",
          "type": "address"
        },
        {
          "internalType": "uint256",
          "name": "extraRewards",
          "type": "uint256"
        }
      ],
      "name": "addRewards",
      "outputs": [],
      "stateMutability": "nonpayable",
      "type": "function"
    }
  ],
  "bytecode": "0x608060405234801561001057600080fd5b50604051613df2380380613df28339818101604052602081101561003357600080fd5b8101908080519060200190929190505050806000806101000a81548173ffffffffffffffffffffffffffffffffffffffff021916908373ffffffffffffffffffffffffffffffffffffffff16021790555050613d5e806100946000396000f3fe60806040523480156200001157600080fd5b50600436106200003a5760003560e01c80637243a920146200003f578063a9fc507b1462000102575b600080fd5b620000c2600480360360a08110156200005757600080fd5b81019080803573ffffffffffffffffffffffffffffffffffffffff169060200190929190803573ffffffffffffffffffffffffffffffffffffffff16906020019092919080359060200190929190803590602001909291908035906020019092919050505062000153565b6040518082600260200280838360005b83811015620000ef578082015181840152602081019050620000d2565b5050505090500191505060405180910390f35b62000151600480360360408110156200011a57600080fd5b81019080803573ffffffffffffffffffffffffffffffffffffffff1690602001909291908035906020019092919050505062000ed6565b005b6200015d620012f4565b600073ffffffffffffffffffffffffffffffffffffffff16600160008873ffffffffffffffffffffffffffffffffffffffff1673ffffffffffffffffffffffffffffffffffffffff16815260200190815260200160002060008773ffffffffffffffffffffffffffffffffffffffff1673ffffffffffffffffffffffffffffffffffffffff16815260200190815260200160002060009054906101000a900473ffffffffffffffffffffffffffffffffffffffff1673ffffffffffffffffffffffffffffffffffffffff16146200029c576040517f08c379a000000000000000000000000000000000000000000000000000000000815260040180806020018281038252601f8152602001807f5468697320746f6b656e206661726d20616c726561647920657869737473210081525060200191505060405180910390fd5b818573ffffffffffffffffffffffffffffffffffffffff166370a08231336040518263ffffffff1660e01b8152600401808273ffffffffffffffffffffffffffffffffffffffff16815260200191505060206040518083038186803b1580156200030557600080fd5b505afa1580156200031a573d6000803e3d6000fd5b505050506040513d60208110156200033157600080fd5b810190808051906020019092919050505010156200039b576040517f08c379a000000000000000000000000000000000000000000000000000000000815260040180806020018281038252604a81526020018062003c9c604a913960600191505060405180910390fd5b6000620003c86014620003b96064866200115290919063ffffffff16565b6200119e90919063ffffffff16565b9050600081840390506000308989898986604051620003e79062001316565b808773ffffffffffffffffffffffffffffffffffffffff1681526020018673ffffffffffffffffffffffffffffffffffffffff1681526020018573ffffffffffffffffffffffffffffffffffffffff1681526020018481526020018381526020018281526020019650505050505050604051809103906000f08015801562000473573d6000803e3d6000fd5b509050600073ffffffffffffffffffffffffffffffffffffffff16600160008b73ffffffffffffffffffffffffffffffffffffffff1673ffffffffffffffffffffffffffffffffffffffff16815260200190815260200160002060008060009054906101000a900473ffffffffffffffffffffffffffffffffffffffff1673ffffffffffffffffffffffffffffffffffffffff1673ffffffffffffffffffffffffffffffffffffffff16815260200190815260200160002060009054906101000a900473ffffffffffffffffffffffffffffffffffffffff1673ffffffffffffffffffffffffffffffffffffffff16141562000796576000308a60008054906101000a900473ffffffffffffffffffffffffffffffffffffffff168a601288604051620005a09062001316565b808773ffffffffffffffffffffffffffffffffffffffff1681526020018673ffffffffffffffffffffffffffffffffffffffff1681526020018573ffffffffffffffffffffffffffffffffffffffff1681526020018481526020018381526020018281526020019650505050505050604051809103906000f0801580156200062c573d6000803e3d6000fd5b509050600081905080600160008d73ffffffffffffffffffffffffffffffffffffffff1673ffffffffffffffffffffffffffffffffffffffff16815260200190815260200160002060008060009054906101000a900473ffffffffffffffffffffffffffffffffffffffff1673ffffffffffffffffffffffffffffffffffffffff1673ffffffffffffffffffffffffffffffffffffffff16815260200190815260200160002060006101000a81548173ffffffffffffffffffffffffffffffffffffffff021916908373ffffffffffffffffffffffffffffffffffffffff16021790555033600260008373ffffffffffffffffffffffffffffffffffffffff1673ffffffffffffffffffffffffffffffffffffffff16815260200190815260200160002060006101000a81548173ffffffffffffffffffffffffffffffffffffffff021916908373ffffffffffffffffffffffffffffffffffffffff1602179055505050620008c1565b600160008a73ffffffffffffffffffffffffffffffffffffffff1673ffffffffffffffffffffffffffffffffffffffff16815260200190815260200160002060008060009054906101000a900473ffffffffffffffffffffffffffffffffffffffff1673ffffffffffffffffffffffffffffffffffffffff1673ffffffffffffffffffffffffffffffffffffffff16815260200190815260200160002060009054906101000a900473ffffffffffffffffffffffffffffffffffffffff1673ffffffffffffffffffffffffffffffffffffffff1663ff809f7e846040518263ffffffff1660e01b815260040180828152602001915050600060405180830381600087803b158015620008a757600080fd5b505af1158015620008bc573d6000803e3d6000fd5b505050505b600081905080600160008c73ffffffffffffffffffffffffffffffffffffffff1673ffffffffffffffffffffffffffffffffffffffff16815260200190815260200160002060008b73ffffffffffffffffffffffffffffffffffffffff1673ffffffffffffffffffffffffffffffffffffffff16815260200190815260200160002060006101000a81548173ffffffffffffffffffffffffffffffffffffffff021916908373ffffffffffffffffffffffffffffffffffffffff16021790555033600260008373ffffffffffffffffffffffffffffffffffffffff1673ffffffffffffffffffffffffffffffffffffffff16815260200190815260200160002060006101000a81548173ffffffffffffffffffffffffffffffffffffffff021916908373ffffffffffffffffffffffffffffffffffffffff160217905550600160008b73ffffffffffffffffffffffffffffffffffffffff1673ffffffffffffffffffffffffffffffffffffffff16815260200190815260200160002060008060009054906101000a900473ffffffffffffffffffffffffffffffffffffffff1673ffffffffffffffffffffffffffffffffffffffff1673ffffffffffffffffffffffffffffffffffffffff16815260200190815260200160002060009054906101000a900473ffffffffffffffffffffffffffffffffffffffff16600360008373ffffffffffffffffffffffffffffffffffffffff1673ffffffffffffffffffffffffffffffffffffffff16815260200190815260200160002060006101000a81548173ffffffffffffffffffffffffffffffffffffffff021916908373ffffffffffffffffffffffffffffffffffffffff1602179055508060036000600160008e73ffffffffffffffffffffffffffffffffffffffff1673ffffffffffffffffffffffffffffffffffffffff16815260200190815260200160002060008060009054906101000a900473ffffffffffffffffffffffffffffffffffffffff1673ffffffffffffffffffffffffffffffffffffffff1673ffffffffffffffffffffffffffffffffffffffff16815260200190815260200160002060009054906101000a900473ffffffffffffffffffffffffffffffffffffffff1673ffffffffffffffffffffffffffffffffffffffff1673ffffffffffffffffffffffffffffffffffffffff16815260200190815260200160002060006101000a81548173ffffffffffffffffffffffffffffffffffffffff021916908373ffffffffffffffffffffffffffffffffffffffff1602179055507ff730c11910decdf9780859f4617d4401788d968a632e24291a8afd695a127dc582600160008d73ffffffffffffffffffffffffffffffffffffffff1673ffffffffffffffffffffffffffffffffffffffff16815260200190815260200160002060008060009054906101000a900473ffffffffffffffffffffffffffffffffffffffff1673ffffffffffffffffffffffffffffffffffffffff1673ffffffffffffffffffffffffffffffffffffffff16815260200190815260200160002060009054906101000a900473ffffffffffffffffffffffffffffffffffffffff16604051808373ffffffffffffffffffffffffffffffffffffffff1681526020018273ffffffffffffffffffffffffffffffffffffffff1681526020019250505060405180910390a160405180604001604052808373ffffffffffffffffffffffffffffffffffffffff1673ffffffffffffffffffffffffffffffffffffffff168152602001600160008d73ffffffffffffffffffffffffffffffffffffffff1673ffffffffffffffffffffffffffffffffffffffff16815260200190815260200160002060008060009054906101000a900473ffffffffffffffffffffffffffffffffffffffff1673ffffffffffffffffffffffffffffffffffffffff1673ffffffffffffffffffffffffffffffffffffffff16815260200190815260200160002060009054906101000a900473ffffffffffffffffffffffffffffffffffffffff1673ffffffffffffffffffffffffffffffffffffffff1673ffffffffffffffffffffffffffffffffffffffff1681525094505050505095945050505050565b3373ffffffffffffffffffffffffffffffffffffffff16600260008473ffffffffffffffffffffffffffffffffffffffff1673ffffffffffffffffffffffffffffffffffffffff16815260200190815260200160002060009054906101000a900473ffffffffffffffffffffffffffffffffffffffff1673ffffffffffffffffffffffffffffffffffffffff161462000fbb576040517f08c379a000000000000000000000000000000000000000000000000000000000815260040180806020018281038252602281526020018062003ce66022913960400191505060405180910390fd5b600062000fd36002836200115290919063ffffffff16565b9050600081830390508373ffffffffffffffffffffffffffffffffffffffff1663ff809f7e826040518263ffffffff1660e01b815260040180828152602001915050600060405180830381600087803b1580156200103057600080fd5b505af115801562001045573d6000803e3d6000fd5b50505050600360008573ffffffffffffffffffffffffffffffffffffffff1673ffffffffffffffffffffffffffffffffffffffff16815260200190815260200160002060009054906101000a900473ffffffffffffffffffffffffffffffffffffffff1673ffffffffffffffffffffffffffffffffffffffff1663ff809f7e836040518263ffffffff1660e01b815260040180828152602001915050600060405180830381600087803b158015620010fc57600080fd5b505af115801562001111573d6000803e3d6000fd5b505050507f2de6521b4cb925eafba1d1e23dfd99647fc5ca4c029060a1e40d6ca84fcbe10d836040518082815260200191505060405180910390a150505050565b60006200119683836040518060400160405280601a81526020017f536166654d6174683a206469766973696f6e206279207a65726f00000000000081525062001229565b905092915050565b600080831415620011b3576000905062001223565b6000828402905082848281620011c557fe5b04146200121e576040517f08c379a000000000000000000000000000000000000000000000000000000000815260040180806020018281038252602181526020018062003d086021913960400191505060405180910390fd5b809150505b92915050565b60008083118290620012d9576040517f08c379a00000000000000000000000000000000000000000000000000000000081526004018080602001828103825283818151815260200191508051906020019080838360005b838110156200129d57808201518184015260208101905062001280565b50505050905090810190601f168015620012cb5780820380516001836020036101000a031916815260200191505b509250505060405180910390fd5b506000838581620012e657fe5b049050809150509392505050565b6040518060400160405280600290602082028036833780820191505090505090565b61297780620013258339019056fe60806040526000600555600060065560006007553480156200002057600080fd5b506040516200297738038062002977833981810160405260c08110156200004657600080fd5b81019080805190602001909291908051906020019092919080519060200190929190805190602001909291908051906020019092919080519060200190929190505050600160008190555084600260006101000a81548173ffffffffffffffffffffffffffffffffffffffff021916908373ffffffffffffffffffffffffffffffffffffffff16021790555083600360006101000a81548173ffffffffffffffffffffffffffffffffffffffff021916908373ffffffffffffffffffffffffffffffffffffffff16021790555085600160006101000a81548173ffffffffffffffffffffffffffffffffffffffff021916908373ffffffffffffffffffffffffffffffffffffffff1602179055506201518083026007819055506200017c60075442620001a960201b620014901790919060201c565b60058190555081600a0a6004819055506200019d816200023260201b60201c565b50505050505062000b1a565b60008082840190508381101562000228576040517f08c379a000000000000000000000000000000000000000000000000000000000815260040180806020018281038252601b8152602001807f536166654d6174683a206164646974696f6e206f766572666c6f77000000000081525060200191505060405180910390fd5b8091505092915050565b600160009054906101000a900473ffffffffffffffffffffffffffffffffffffffff1673ffffffffffffffffffffffffffffffffffffffff163373ffffffffffffffffffffffffffffffffffffffff1614620002da576040517f08c379a000000000000000000000000000000000000000000000000000000000815260040180806020018281038252602a81526020018062002916602a913960400191505060405180910390fd5b60006005544210620002ef5760006006819055505b620002ff6200063060201b60201c565b60098190555062000315620006e560201b60201c565b600881905550600073ffffffffffffffffffffffffffffffffffffffff168173ffffffffffffffffffffffffffffffffffffffff1614620003eb5762000361816200070560201b60201c565b600b60008373ffffffffffffffffffffffffffffffffffffffff1673ffffffffffffffffffffffffffffffffffffffff16815260200190815260200160002081905550600954600a60008373ffffffffffffffffffffffffffffffffffffffff1673ffffffffffffffffffffffffffffffffffffffff168152602001908152602001600020819055505b60055442111562000448576040517f08c379a0000000000000000000000000000000000000000000000000000000008152600401808060200182810382526037815260200180620029406037913960400191505060405180910390fd5b600062000466426005546200084160201b620015181790919060201c565b9050600062000486600654836200089360201b620015621790919060201c565b9050620004bd600754620004a98387620001a960201b620014901790919060201c565b6200091e60201b620015e81790919060201c565b6006819055506000600260009054906101000a900473ffffffffffffffffffffffffffffffffffffffff1673ffffffffffffffffffffffffffffffffffffffff166370a08231306040518263ffffffff1660e01b8152600401808273ffffffffffffffffffffffffffffffffffffffff16815260200191505060206040518083038186803b1580156200054f57600080fd5b505afa15801562000564573d6000803e3d6000fd5b505050506040513d60208110156200057b57600080fd5b81019080805190602001909291905050509050620005aa600754826200091e60201b620015e81790919060201c565b600654111562000622576040517f08c379a00000000000000000000000000000000000000000000000000000000081526004018080602001828103825260188152602001807f50726f76696465642072657761726420746f6f2068696768000000000000000081525060200191505060405180910390fd5b426008819055505050505050565b600080600c54141562000648576009549050620006e2565b620006df620006c8600c54620006b4600454620006a06006546200068c60085462000678620006e560201b60201c565b6200084160201b620015181790919060201c565b6200089360201b620015621790919060201c565b6200089360201b620015621790919060201c565b6200091e60201b620015e81790919060201c565b600954620001a960201b620014901790919060201c565b90505b90565b600062000700426005546200097060201b620016321760201c565b905090565b60006200083a600b60008473ffffffffffffffffffffffffffffffffffffffff1673ffffffffffffffffffffffffffffffffffffffff168152602001908152602001600020546200082660045462000812620007be600a60008973ffffffffffffffffffffffffffffffffffffffff1673ffffffffffffffffffffffffffffffffffffffff16815260200190815260200160002054620007aa6200063060201b60201c565b6200084160201b620015181790919060201c565b600d60008973ffffffffffffffffffffffffffffffffffffffff1673ffffffffffffffffffffffffffffffffffffffff168152602001908152602001600020546200089360201b620015621790919060201c565b6200091e60201b620015e81790919060201c565b620001a960201b620014901790919060201c565b9050919050565b60006200088b83836040518060400160405280601e81526020017f536166654d6174683a207375627472616374696f6e206f766572666c6f7700008152506200098b60201b60201c565b905092915050565b600080831415620008a8576000905062000918565b6000828402905082848281620008ba57fe5b041462000913576040517f08c379a0000000000000000000000000000000000000000000000000000000008152600401808060200182810382526021815260200180620028f56021913960400191505060405180910390fd5b809150505b92915050565b60006200096883836040518060400160405280601a81526020017f536166654d6174683a206469766973696f6e206279207a65726f00000000000081525062000a4f60201b60201c565b905092915050565b600081831062000981578162000983565b825b905092915050565b600083831115829062000a3c576040517f08c379a00000000000000000000000000000000000000000000000000000000081526004018080602001828103825283818151815260200191508051906020019080838360005b8381101562000a00578082015181840152602081019050620009e3565b50505050905090810190601f16801562000a2e5780820380516001836020036101000a031916815260200191505b509250505060405180910390fd5b5060008385039050809150509392505050565b6000808311829062000aff576040517f08c379a00000000000000000000000000000000000000000000000000000000081526004018080602001828103825283818151815260200191508051906020019080838360005b8381101562000ac357808201518184015260208101905062000aa6565b50505050905090810190601f16801562000af15780820380516001836020036101000a031916815260200191505b509250505060405180910390fd5b50600083858162000b0c57fe5b049050809150509392505050565b611dcb8062000b2a6000396000f3fe608060405234801561001057600080fd5b506004361061012b5760003560e01c80638193ae7e116100ad578063cd3daf9d11610071578063cd3daf9d146103fc578063d1af0c7d1461041a578063df136d651461044e578063e9fad8ee1461046c578063ff809f7e146104765761012b565b80638193ae7e1461031c5780638b8763471461033a578063a694fc3a14610392578063b1160fa8146103c0578063c8f33c91146103de5761012b565b80633d18b912116100f45780633d18b9121461024a57806349984b641461025457806370a082311461027257806372f702f3146102ca5780637b0a47ee146102fe5761012b565b80628cc262146101305780630700037d1461018857806318160ddd146101e05780632e1a7d4d146101fe578063386a95251461022c575b600080fd5b6101726004803603602081101561014657600080fd5b81019080803573ffffffffffffffffffffffffffffffffffffffff1690602001909291905050506104a4565b6040518082815260200191505060405180910390f35b6101ca6004803603602081101561019e57600080fd5b81019080803573ffffffffffffffffffffffffffffffffffffffff1690602001909291905050506105bc565b6040518082815260200191505060405180910390f35b6101e86105d4565b6040518082815260200191505060405180910390f35b61022a6004803603602081101561021457600080fd5b81019080803590602001909291905050506105de565b005b610234610922565b6040518082815260200191505060405180910390f35b610252610928565b005b61025c610bd9565b6040518082815260200191505060405180910390f35b6102b46004803603602081101561028857600080fd5b81019080803573ffffffffffffffffffffffffffffffffffffffff169060200190929190505050610bdf565b6040518082815260200191505060405180910390f35b6102d2610c28565b604051808273ffffffffffffffffffffffffffffffffffffffff16815260200191505060405180910390f35b610306610c4e565b6040518082815260200191505060405180910390f35b610324610c54565b6040518082815260200191505060405180910390f35b61037c6004803603602081101561035057600080fd5b81019080803573ffffffffffffffffffffffffffffffffffffffff169060200190929190505050610c5a565b6040518082815260200191505060405180910390f35b6103be600480360360208110156103a857600080fd5b8101908080359060200190929190505050610c72565b005b6103c8610fb8565b6040518082815260200191505060405180910390f35b6103e6610fcb565b6040518082815260200191505060405180910390f35b610404610fd1565b6040518082815260200191505060405180910390f35b610422611059565b604051808273ffffffffffffffffffffffffffffffffffffffff16815260200191505060405180910390f35b61045661107f565b6040518082815260200191505060405180910390f35b610474611085565b005b6104a26004803603602081101561048c57600080fd5b81019080803590602001909291905050506110d7565b005b60006105b5600b60008473ffffffffffffffffffffffffffffffffffffffff1673ffffffffffffffffffffffffffffffffffffffff168152602001908152602001600020546105a760045461059961054b600a60008973ffffffffffffffffffffffffffffffffffffffff1673ffffffffffffffffffffffffffffffffffffffff1681526020019081526020016000205461053d610fd1565b61151890919063ffffffff16565b600d60008973ffffffffffffffffffffffffffffffffffffffff1673ffffffffffffffffffffffffffffffffffffffff1681526020019081526020016000205461156290919063ffffffff16565b6115e890919063ffffffff16565b61149090919063ffffffff16565b9050919050565b600b6020528060005260406000206000915090505481565b6000600c54905090565b60026000541415610657576040517f08c379a000000000000000000000000000000000000000000000000000000000815260040180806020018281038252601f8152602001807f5265656e7472616e637947756172643a207265656e7472616e742063616c6c0081525060200191505060405180910390fd5b60026000819055503360055442106106725760006006819055505b61067a610fd1565b600981905550610688610fb8565b600881905550600073ffffffffffffffffffffffffffffffffffffffff168173ffffffffffffffffffffffffffffffffffffffff1614610755576106cb816104a4565b600b60008373ffffffffffffffffffffffffffffffffffffffff1673ffffffffffffffffffffffffffffffffffffffff16815260200190815260200160002081905550600954600a60008373ffffffffffffffffffffffffffffffffffffffff1673ffffffffffffffffffffffffffffffffffffffff168152602001908152602001600020819055505b600082116107cb576040517f08c379a00000000000000000000000000000000000000000000000000000000081526004018080602001828103825260118152602001807f43616e6e6f74207769746864726177203000000000000000000000000000000081525060200191505060405180910390fd5b6107e082600c5461151890919063ffffffff16565b600c8190555061083882600d60003373ffffffffffffffffffffffffffffffffffffffff1673ffffffffffffffffffffffffffffffffffffffff1681526020019081526020016000205461151890919063ffffffff16565b600d60003373ffffffffffffffffffffffffffffffffffffffff1673ffffffffffffffffffffffffffffffffffffffff168152602001908152602001600020819055506108c83383600360009054906101000a900473ffffffffffffffffffffffffffffffffffffffff1673ffffffffffffffffffffffffffffffffffffffff1661164b9092919063ffffffff16565b3373ffffffffffffffffffffffffffffffffffffffff167f7084f5476618d8e60b11ef0d7d3f06914655adb8793e28ff7f018d4c76d505d5836040518082815260200191505060405180910390a250600160008190555050565b60075481565b600260005414156109a1576040517f08c379a000000000000000000000000000000000000000000000000000000000815260040180806020018281038252601f8152602001807f5265656e7472616e637947756172643a207265656e7472616e742063616c6c0081525060200191505060405180910390fd5b60026000819055503360055442106109bc5760006006819055505b6109c4610fd1565b6009819055506109d2610fb8565b600881905550600073ffffffffffffffffffffffffffffffffffffffff168173ffffffffffffffffffffffffffffffffffffffff1614610a9f57610a15816104a4565b600b60008373ffffffffffffffffffffffffffffffffffffffff1673ffffffffffffffffffffffffffffffffffffffff16815260200190815260200160002081905550600954600a60008373ffffffffffffffffffffffffffffffffffffffff1673ffffffffffffffffffffffffffffffffffffffff168152602001908152602001600020819055505b6000600b60003373ffffffffffffffffffffffffffffffffffffffff1673ffffffffffffffffffffffffffffffffffffffff1681526020019081526020016000205490506000811115610bcd576000600b60003373ffffffffffffffffffffffffffffffffffffffff1673ffffffffffffffffffffffffffffffffffffffff16815260200190815260200160002081905550610b7e3382600260009054906101000a900473ffffffffffffffffffffffffffffffffffffffff1673ffffffffffffffffffffffffffffffffffffffff1661164b9092919063ffffffff16565b3373ffffffffffffffffffffffffffffffffffffffff167fe2403640ba68fed3a2f88b7557551d1993f84b99bb10ff833f0cf8db0c5e0486826040518082815260200191505060405180910390a25b50506001600081905550565b60055481565b6000600d60008373ffffffffffffffffffffffffffffffffffffffff1673ffffffffffffffffffffffffffffffffffffffff168152602001908152602001600020549050919050565b600360009054906101000a900473ffffffffffffffffffffffffffffffffffffffff1681565b60065481565b60045481565b600a6020528060005260406000206000915090505481565b60026000541415610ceb576040517f08c379a000000000000000000000000000000000000000000000000000000000815260040180806020018281038252601f8152602001807f5265656e7472616e637947756172643a207265656e7472616e742063616c6c0081525060200191505060405180910390fd5b6002600081905550336005544210610d065760006006819055505b610d0e610fd1565b600981905550610d1c610fb8565b600881905550600073ffffffffffffffffffffffffffffffffffffffff168173ffffffffffffffffffffffffffffffffffffffff1614610de957610d5f816104a4565b600b60008373ffffffffffffffffffffffffffffffffffffffff1673ffffffffffffffffffffffffffffffffffffffff16815260200190815260200160002081905550600954600a60008373ffffffffffffffffffffffffffffffffffffffff1673ffffffffffffffffffffffffffffffffffffffff168152602001908152602001600020819055505b60008211610e5f576040517f08c379a000000000000000000000000000000000000000000000000000000000815260040180806020018281038252600e8152602001807f43616e6e6f74207374616b65203000000000000000000000000000000000000081525060200191505060405180910390fd5b610e7482600c5461149090919063ffffffff16565b600c81905550610ecc82600d60003373ffffffffffffffffffffffffffffffffffffffff1673ffffffffffffffffffffffffffffffffffffffff1681526020019081526020016000205461149090919063ffffffff16565b600d60003373ffffffffffffffffffffffffffffffffffffffff1673ffffffffffffffffffffffffffffffffffffffff16815260200190815260200160002081905550610f5e333084600360009054906101000a900473ffffffffffffffffffffffffffffffffffffffff1673ffffffffffffffffffffffffffffffffffffffff166116ed909392919063ffffffff16565b3373ffffffffffffffffffffffffffffffffffffffff167f9e71bc8eea02a63969f509818f2dafb9254532904319f9dbda79b67bd34a5f3d836040518082815260200191505060405180910390a250600160008190555050565b6000610fc642600554611632565b905090565b60085481565b600080600c541415610fe7576009549050611056565b611053611042600c5461103460045461102660065461101860085461100a610fb8565b61151890919063ffffffff16565b61156290919063ffffffff16565b61156290919063ffffffff16565b6115e890919063ffffffff16565b60095461149090919063ffffffff16565b90505b90565b600260009054906101000a900473ffffffffffffffffffffffffffffffffffffffff1681565b60095481565b6110cd600d60003373ffffffffffffffffffffffffffffffffffffffff1673ffffffffffffffffffffffffffffffffffffffff168152602001908152602001600020546105de565b6110d5610928565b565b600160009054906101000a900473ffffffffffffffffffffffffffffffffffffffff1673ffffffffffffffffffffffffffffffffffffffff163373ffffffffffffffffffffffffffffffffffffffff161461117d576040517f08c379a000000000000000000000000000000000000000000000000000000000815260040180806020018281038252602a815260200180611d0b602a913960400191505060405180910390fd5b600060055442106111915760006006819055505b611199610fd1565b6009819055506111a7610fb8565b600881905550600073ffffffffffffffffffffffffffffffffffffffff168173ffffffffffffffffffffffffffffffffffffffff1614611274576111ea816104a4565b600b60008373ffffffffffffffffffffffffffffffffffffffff1673ffffffffffffffffffffffffffffffffffffffff16815260200190815260200160002081905550600954600a60008373ffffffffffffffffffffffffffffffffffffffff1673ffffffffffffffffffffffffffffffffffffffff168152602001908152602001600020819055505b6005544211156112cf576040517f08c379a0000000000000000000000000000000000000000000000000000000008152600401808060200182810382526037815260200180611d356037913960400191505060405180910390fd5b60006112e64260055461151890919063ffffffff16565b905060006112ff6006548361156290919063ffffffff16565b905061132860075461131a838761149090919063ffffffff16565b6115e890919063ffffffff16565b6006819055506000600260009054906101000a900473ffffffffffffffffffffffffffffffffffffffff1673ffffffffffffffffffffffffffffffffffffffff166370a08231306040518263ffffffff1660e01b8152600401808273ffffffffffffffffffffffffffffffffffffffff16815260200191505060206040518083038186803b1580156113b957600080fd5b505afa1580156113cd573d6000803e3d6000fd5b505050506040513d60208110156113e357600080fd5b8101908080519060200190929190505050905061140b600754826115e890919063ffffffff16565b6006541115611482576040517f08c379a00000000000000000000000000000000000000000000000000000000081526004018080602001828103825260188152602001807f50726f76696465642072657761726420746f6f2068696768000000000000000081525060200191505060405180910390fd5b426008819055505050505050565b60008082840190508381101561150e576040517f08c379a000000000000000000000000000000000000000000000000000000000815260040180806020018281038252601b8152602001807f536166654d6174683a206164646974696f6e206f766572666c6f77000000000081525060200191505060405180910390fd5b8091505092915050565b600061155a83836040518060400160405280601e81526020017f536166654d6174683a207375627472616374696f6e206f766572666c6f7700008152506117ae565b905092915050565b60008083141561157557600090506115e2565b600082840290508284828161158657fe5b04146115dd576040517f08c379a0000000000000000000000000000000000000000000000000000000008152600401808060200182810382526021815260200180611cea6021913960400191505060405180910390fd5b809150505b92915050565b600061162a83836040518060400160405280601a81526020017f536166654d6174683a206469766973696f6e206279207a65726f00000000000081525061186e565b905092915050565b60008183106116415781611643565b825b905092915050565b6116e88363a9059cbb60e01b8484604051602401808373ffffffffffffffffffffffffffffffffffffffff16815260200182815260200192505050604051602081830303815290604052907bffffffffffffffffffffffffffffffffffffffffffffffffffffffff19166020820180517bffffffffffffffffffffffffffffffffffffffffffffffffffffffff8381831617835250505050611934565b505050565b6117a8846323b872dd60e01b858585604051602401808473ffffffffffffffffffffffffffffffffffffffff1681526020018373ffffffffffffffffffffffffffffffffffffffff1681526020018281526020019350505050604051602081830303815290604052907bffffffffffffffffffffffffffffffffffffffffffffffffffffffff19166020820180517bffffffffffffffffffffffffffffffffffffffffffffffffffffffff8381831617835250505050611934565b50505050565b600083831115829061185b576040517f08c379a00000000000000000000000000000000000000000000000000000000081526004018080602001828103825283818151815260200191508051906020019080838360005b83811015611820578082015181840152602081019050611805565b50505050905090810190601f16801561184d5780820380516001836020036101000a031916815260200191505b509250505060405180910390fd5b5060008385039050809150509392505050565b6000808311829061191a576040517f08c379a00000000000000000000000000000000000000000000000000000000081526004018080602001828103825283818151815260200191508051906020019080838360005b838110156118df5780820151818401526020810190506118c4565b50505050905090810190601f16801561190c5780820380516001836020036101000a031916815260200191505b509250505060405180910390fd5b50600083858161192657fe5b049050809150509392505050565b6060611996826040518060400160405280602081526020017f5361666545524332303a206c6f772d6c6576656c2063616c6c206661696c65648152508573ffffffffffffffffffffffffffffffffffffffff16611a239092919063ffffffff16565b9050600081511115611a1e578080602001905160208110156119b757600080fd5b8101908080519060200190929190505050611a1d576040517f08c379a000000000000000000000000000000000000000000000000000000000815260040180806020018281038252602a815260200180611d6c602a913960400191505060405180910390fd5b5b505050565b6060611a328484600085611a3b565b90509392505050565b606082471015611a96576040517f08c379a0000000000000000000000000000000000000000000000000000000008152600401808060200182810382526026815260200180611cc46026913960400191505060405180910390fd5b611a9f85611be4565b611b11576040517f08c379a000000000000000000000000000000000000000000000000000000000815260040180806020018281038252601d8152602001807f416464726573733a2063616c6c20746f206e6f6e2d636f6e747261637400000081525060200191505060405180910390fd5b600060608673ffffffffffffffffffffffffffffffffffffffff1685876040518082805190602001908083835b60208310611b615780518252602082019150602081019050602083039250611b3e565b6001836020036101000a03801982511681845116808217855250505050505090500191505060006040518083038185875af1925050503d8060008114611bc3576040519150601f19603f3d011682016040523d82523d6000602084013e611bc8565b606091505b5091509150611bd8828286611bf7565b92505050949350505050565b600080823b905060008111915050919050565b60608315611c0757829050611cbc565b600083511115611c1a5782518084602001fd5b816040517f08c379a00000000000000000000000000000000000000000000000000000000081526004018080602001828103825283818151815260200191508051906020019080838360005b83811015611c81578082015181840152602081019050611c66565b50505050905090810190601f168015611cae5780820380516001836020036101000a031916815260200191505b509250505060405180910390fd5b939250505056fe416464726573733a20696e73756666696369656e742062616c616e636520666f722063616c6c536166654d6174683a206d756c7469706c69636174696f6e206f766572666c6f774f6e6c7920746865206661726d2061646d696e20697320616c6c6f77656420746f20646f207468697321546865206661726d2068617320616c726561647920656e6465642c20796f752063616e6e6f7420616464206e65772072657761726473215361666545524332303a204552433230206f7065726174696f6e20646964206e6f742073756363656564a264697066735822122025f0956bf623db4931ac03927365c09d896f29964f2694abc1e61004666fed7664736f6c63430007030033536166654d6174683a206d756c7469706c69636174696f6e206f766572666c6f774f6e6c7920746865206661726d2061646d696e20697320616c6c6f77656420746f20646f207468697321546865206661726d2068617320616c726561647920656e6465642c20796f752063616e6e6f7420616464206e6577207265776172647321596f752077616e7420746f2061646420612068696768657220616d6f756e74206f6620746f6b656e7320746f206661726d207468656e20796f75207365656d20746f20686176652e2e2e596f7520617265206e6f74207468652061646d696e206f662074686973206661726d536166654d6174683a206d756c7469706c69636174696f6e206f766572666c6f77a26469706673582212206054351ac4096230c8e40a14fa2a6c9898ddce4f3993992985d164316418428564736f6c63430007030033",
  "immutableReferences": {},
  "source": "// SPDX-License-Identifier: MIT\r\n\r\n// This is the V1 of the Farming as a service factory contract.\r\n// The contract creates a farm for you with the farming token and reward token you specify\r\n// The farming token can be any valid ERC20 token, this includes LP tokens from UniSwap and other exchanges\r\n// For rewardToken the contract also creates a fram with the DefiHub as a farming token\r\n// The contract also has an option to add extra rewards to the farms.\r\n// Adding extra rewards will happen in a 50/50 split between the DefiHub farm and your farm of choise\r\n\r\npragma solidity ^0.7.1;\r\n\r\nimport \"./FarmAsAServiceV1.sol\";\r\n\r\n// Openzeppelin import\r\nimport \"@openzeppelin/contracts/math/Math.sol\";\r\nimport \"@openzeppelin/contracts/math/SafeMath.sol\";\r\nimport '@openzeppelin/contracts/token/ERC20/IERC20.sol';\r\n\r\ncontract FarmAsAServiceV1Factory {\r\n\r\n    using SafeMath for uint;\r\n\r\n    // The native token of the DefiHub project\r\n    address defiHubTokenAddress;\r\n\r\n    // tokenToFarm => (tokenToFarmWith => CreatedFarm)\r\n    mapping (address => mapping (address => address)) createdTokenFarms;\r\n        \r\n    // CreatedFarm => FarmAdmin\r\n    mapping (address => address) farmAdmins;\r\n\r\n    // CreatedFarm => DefiHubFarm\r\n    mapping (address => address) defiHubFarmCouples;\r\n\r\n    // Constrcutor sets the address of the native DefiHub token\r\n    constructor(address _defiHubTokenAddress) {\r\n        defiHubTokenAddress = _defiHubTokenAddress;\r\n    }\r\n\r\n    // Function to create a new farm\r\n    function createNewFarm(\r\n        address _rewardsToken,\r\n        address _stakingToken,\r\n        uint _rewardsDurationInDays,\r\n        uint _rawardsTokenDecimals,\r\n        uint _totalRwards\r\n    ) external returns (address[2] memory) {\r\n        // First we check if this farm is already created and if there are enought fund to add to the farm\r\n        require(createdTokenFarms[_rewardsToken][_stakingToken] == address(0), 'This token farm already exists!');\r\n        require(IERC20(_stakingToken).balanceOf(msg.sender) >= _totalRwards, 'You want to add a higher amount of tokens to farm then you seem to have...');\r\n\r\n        // Take 20% of the rewards and reserve them for the DefiHub native ntoken farm\r\n        uint rewardsForDefiHubFarms = _totalRwards.div(100).mul(20);\r\n        uint rewardsForDeployerFarm = _totalRwards - rewardsForDefiHubFarms;\r\n\r\n        // Create the farm\r\n        FarmAsAServiceV1 createdFarm = new FarmAsAServiceV1(\r\n            address(this),\r\n            _rewardsToken,\r\n            _stakingToken,\r\n            _rewardsDurationInDays,\r\n            _rawardsTokenDecimals,\r\n            rewardsForDeployerFarm\r\n        );\r\n\r\n        // Check if there alreasy is a DefiHub farm for the _rewardsToken\r\n        if (createdTokenFarms[_rewardsToken][defiHubTokenAddress] == address(0)) {\r\n            // If there is no DefiHub farm create it\r\n            FarmAsAServiceV1 defiHubFarm = new FarmAsAServiceV1(\r\n                address(this),\r\n                _rewardsToken,\r\n                defiHubTokenAddress,\r\n                _rewardsDurationInDays,\r\n                18,\r\n                rewardsForDefiHubFarms\r\n            );\r\n\r\n            // Set mappings for the created farm\r\n            address createdDefiHubFarmAddress = address(defiHubFarm);\r\n            createdTokenFarms[_rewardsToken][defiHubTokenAddress] = createdDefiHubFarmAddress;\r\n            farmAdmins[createdDefiHubFarmAddress] = msg.sender;\r\n        } else {\r\n            // If there already is a farm add the fund to it\r\n            FarmAsAServiceV1(createdTokenFarms[_rewardsToken][defiHubTokenAddress]).modifyRewardAmount(rewardsForDefiHubFarms);\r\n        }\r\n        \r\n        // Set all the mappings\r\n        address createdFarmAddress = address(createdFarm);\r\n        createdTokenFarms[_rewardsToken][_stakingToken] = createdFarmAddress;\r\n        farmAdmins[createdFarmAddress] = msg.sender;\r\n        defiHubFarmCouples[createdFarmAddress] = createdTokenFarms[_rewardsToken][defiHubTokenAddress];\r\n        defiHubFarmCouples[createdTokenFarms[_rewardsToken][defiHubTokenAddress]] = createdFarmAddress;\r\n        emit FarmsCreated(address(createdFarm), address(createdTokenFarms[_rewardsToken][defiHubTokenAddress]));\r\n        return [address(createdFarm), address(createdTokenFarms[_rewardsToken][defiHubTokenAddress])];\r\n    }\r\n\r\n    // Adding funds goes in a 50/50 split between the DefiHun token farm and the farm with the other token\r\n    function addRewards(address farmToUpdate, uint extraRewards) external {\r\n        require(farmAdmins[farmToUpdate] == msg.sender, 'You are not the admin of this farm');\r\n        \r\n        uint rewardsForDefiHubFarms = extraRewards.div(2);\r\n        uint rewardsForDeployerFarm = extraRewards - rewardsForDefiHubFarms;\r\n            \r\n        FarmAsAServiceV1(farmToUpdate).modifyRewardAmount(rewardsForDeployerFarm);\r\n        FarmAsAServiceV1(defiHubFarmCouples[farmToUpdate]).modifyRewardAmount(rewardsForDefiHubFarms);\r\n        emit rewardsAdded(extraRewards);\r\n    }\r\n\r\n    /**************************\r\n             Events \r\n    **************************/\r\n    event FarmsCreated(address farm1, address farm2);\r\n    event rewardsAdded(uint amount);\r\n\r\n\r\n}",
  "sourcePath": "C:/Users/Roberto/Documents/Programmeer Projecten/Solidity - ETH/DefiHub/contracts/FarmAsAServiceV1Factory.sol",
  "compiler": {
    "name": "solc",
    "version": "0.7.3+commit.9bfce1f6.Emscripten.clang"
  },
  "schemaVersion": "3.3.1",
  "updatedAt": "2020-12-21T20:53:47.500Z",
  "devdoc": {
    "kind": "dev",
    "methods": {},
    "version": 1
  },
  "userdoc": {
    "kind": "user",
    "methods": {},
    "version": 1
  }
}