{
  "contractName": "NftSharesV1",
  "abi": [
    {
      "inputs": [
        {
          "internalType": "string",
          "name": "_shareName",
          "type": "string"
        },
        {
          "internalType": "string",
          "name": "_shareSymbol",
          "type": "string"
        },
        {
          "internalType": "uint256",
          "name": "_nftId",
          "type": "uint256"
        },
        {
          "internalType": "address",
          "name": "_nftTokenAddress",
          "type": "address"
        },
        {
          "internalType": "address",
          "name": "_tokenToBuyWith",
          "type": "address"
        },
        {
          "internalType": "uint256",
          "name": "_initialSharePrice",
          "type": "uint256"
        },
        {
          "internalType": "uint256",
          "name": "_totalAmountOfNftShares",
          "type": "uint256"
        },
        {
          "internalType": "uint256",
          "name": "_durationInDays",
          "type": "uint256"
        },
        {
          "internalType": "address",
          "name": "_admin",
          "type": "address"
        }
      ],
      "stateMutability": "nonpayable",
      "type": "constructor"
    },
    {
      "anonymous": false,
      "inputs": [
        {
          "indexed": true,
          "internalType": "address",
          "name": "owner",
          "type": "address"
        },
        {
          "indexed": true,
          "internalType": "address",
          "name": "spender",
          "type": "address"
        },
        {
          "indexed": false,
          "internalType": "uint256",
          "name": "value",
          "type": "uint256"
        }
      ],
      "name": "Approval",
      "type": "event"
    },
    {
      "anonymous": false,
      "inputs": [
        {
          "indexed": false,
          "internalType": "uint256",
          "name": "durationAdded",
          "type": "uint256"
        }
      ],
      "name": "IsoDurationIncreaed",
      "type": "event"
    },
    {
      "anonymous": false,
      "inputs": [
        {
          "indexed": false,
          "internalType": "bool",
          "name": "success",
          "type": "bool"
        }
      ],
      "name": "NftRedeemed",
      "type": "event"
    },
    {
      "anonymous": false,
      "inputs": [
        {
          "indexed": false,
          "internalType": "uint256",
          "name": "totalAmountToReceive",
          "type": "uint256"
        },
        {
          "indexed": false,
          "internalType": "uint256",
          "name": "amountSold",
          "type": "uint256"
        }
      ],
      "name": "NftShareSold",
      "type": "event"
    },
    {
      "anonymous": false,
      "inputs": [
        {
          "indexed": true,
          "internalType": "address",
          "name": "user",
          "type": "address"
        },
        {
          "indexed": false,
          "internalType": "uint256",
          "name": "amountInContract",
          "type": "uint256"
        },
        {
          "indexed": false,
          "internalType": "uint256",
          "name": "amountToReceive",
          "type": "uint256"
        }
      ],
      "name": "OrderPlaced",
      "type": "event"
    },
    {
      "anonymous": false,
      "inputs": [
        {
          "indexed": true,
          "internalType": "address",
          "name": "from",
          "type": "address"
        },
        {
          "indexed": true,
          "internalType": "address",
          "name": "to",
          "type": "address"
        },
        {
          "indexed": false,
          "internalType": "uint256",
          "name": "value",
          "type": "uint256"
        }
      ],
      "name": "Transfer",
      "type": "event"
    },
    {
      "anonymous": false,
      "inputs": [
        {
          "indexed": true,
          "internalType": "address",
          "name": "user",
          "type": "address"
        },
        {
          "indexed": false,
          "internalType": "uint256",
          "name": "amountBought",
          "type": "uint256"
        },
        {
          "indexed": false,
          "internalType": "uint256",
          "name": "amountPaid",
          "type": "uint256"
        }
      ],
      "name": "boughtSharesFromIso",
      "type": "event"
    },
    {
      "anonymous": false,
      "inputs": [
        {
          "indexed": true,
          "internalType": "address",
          "name": "user",
          "type": "address"
        },
        {
          "indexed": false,
          "internalType": "uint256",
          "name": "amountReceived",
          "type": "uint256"
        }
      ],
      "name": "orderCanceled",
      "type": "event"
    },
    {
      "anonymous": false,
      "inputs": [
        {
          "indexed": false,
          "internalType": "bool",
          "name": "success",
          "type": "bool"
        }
      ],
      "name": "succesfullyWithdrawn",
      "type": "event"
    },
    {
      "inputs": [],
      "name": "admin",
      "outputs": [
        {
          "internalType": "address",
          "name": "",
          "type": "address"
        }
      ],
      "stateMutability": "view",
      "type": "function"
    },
    {
      "inputs": [
        {
          "internalType": "address",
          "name": "owner",
          "type": "address"
        },
        {
          "internalType": "address",
          "name": "spender",
          "type": "address"
        }
      ],
      "name": "allowance",
      "outputs": [
        {
          "internalType": "uint256",
          "name": "",
          "type": "uint256"
        }
      ],
      "stateMutability": "view",
      "type": "function"
    },
    {
      "inputs": [
        {
          "internalType": "address",
          "name": "spender",
          "type": "address"
        },
        {
          "internalType": "uint256",
          "name": "amount",
          "type": "uint256"
        }
      ],
      "name": "approve",
      "outputs": [
        {
          "internalType": "bool",
          "name": "",
          "type": "bool"
        }
      ],
      "stateMutability": "nonpayable",
      "type": "function"
    },
    {
      "inputs": [
        {
          "internalType": "address",
          "name": "account",
          "type": "address"
        }
      ],
      "name": "balanceOf",
      "outputs": [
        {
          "internalType": "uint256",
          "name": "",
          "type": "uint256"
        }
      ],
      "stateMutability": "view",
      "type": "function"
    },
    {
      "inputs": [
        {
          "internalType": "address",
          "name": "",
          "type": "address"
        }
      ],
      "name": "buyOrders",
      "outputs": [
        {
          "internalType": "uint256",
          "name": "amountToBuy",
          "type": "uint256"
        },
        {
          "internalType": "uint256",
          "name": "pricePerShare",
          "type": "uint256"
        }
      ],
      "stateMutability": "view",
      "type": "function"
    },
    {
      "inputs": [],
      "name": "decimals",
      "outputs": [
        {
          "internalType": "uint8",
          "name": "",
          "type": "uint8"
        }
      ],
      "stateMutability": "view",
      "type": "function"
    },
    {
      "inputs": [
        {
          "internalType": "address",
          "name": "spender",
          "type": "address"
        },
        {
          "internalType": "uint256",
          "name": "subtractedValue",
          "type": "uint256"
        }
      ],
      "name": "decreaseAllowance",
      "outputs": [
        {
          "internalType": "bool",
          "name": "",
          "type": "bool"
        }
      ],
      "stateMutability": "nonpayable",
      "type": "function"
    },
    {
      "inputs": [],
      "name": "endOfInitalShareOffering",
      "outputs": [
        {
          "internalType": "uint256",
          "name": "",
          "type": "uint256"
        }
      ],
      "stateMutability": "view",
      "type": "function"
    },
    {
      "inputs": [
        {
          "internalType": "address",
          "name": "spender",
          "type": "address"
        },
        {
          "internalType": "uint256",
          "name": "addedValue",
          "type": "uint256"
        }
      ],
      "name": "increaseAllowance",
      "outputs": [
        {
          "internalType": "bool",
          "name": "",
          "type": "bool"
        }
      ],
      "stateMutability": "nonpayable",
      "type": "function"
    },
    {
      "inputs": [],
      "name": "initialShareOfferingStartTime",
      "outputs": [
        {
          "internalType": "uint256",
          "name": "",
          "type": "uint256"
        }
      ],
      "stateMutability": "view",
      "type": "function"
    },
    {
      "inputs": [],
      "name": "initialSharePrice",
      "outputs": [
        {
          "internalType": "uint256",
          "name": "",
          "type": "uint256"
        }
      ],
      "stateMutability": "view",
      "type": "function"
    },
    {
      "inputs": [],
      "name": "intialShareOfferingDurationInDays",
      "outputs": [
        {
          "internalType": "uint256",
          "name": "",
          "type": "uint256"
        }
      ],
      "stateMutability": "view",
      "type": "function"
    },
    {
      "inputs": [],
      "name": "name",
      "outputs": [
        {
          "internalType": "string",
          "name": "",
          "type": "string"
        }
      ],
      "stateMutability": "view",
      "type": "function"
    },
    {
      "inputs": [],
      "name": "nft",
      "outputs": [
        {
          "internalType": "contract IERC721",
          "name": "",
          "type": "address"
        }
      ],
      "stateMutability": "view",
      "type": "function"
    },
    {
      "inputs": [],
      "name": "nftId",
      "outputs": [
        {
          "internalType": "uint256",
          "name": "",
          "type": "uint256"
        }
      ],
      "stateMutability": "view",
      "type": "function"
    },
    {
      "inputs": [],
      "name": "symbol",
      "outputs": [
        {
          "internalType": "string",
          "name": "",
          "type": "string"
        }
      ],
      "stateMutability": "view",
      "type": "function"
    },
    {
      "inputs": [],
      "name": "tokenToBuyWIth",
      "outputs": [
        {
          "internalType": "contract IERC20",
          "name": "",
          "type": "address"
        }
      ],
      "stateMutability": "view",
      "type": "function"
    },
    {
      "inputs": [],
      "name": "totalAmountOfNftShares",
      "outputs": [
        {
          "internalType": "uint256",
          "name": "",
          "type": "uint256"
        }
      ],
      "stateMutability": "view",
      "type": "function"
    },
    {
      "inputs": [],
      "name": "totalSupply",
      "outputs": [
        {
          "internalType": "uint256",
          "name": "",
          "type": "uint256"
        }
      ],
      "stateMutability": "view",
      "type": "function"
    },
    {
      "inputs": [
        {
          "internalType": "address",
          "name": "recipient",
          "type": "address"
        },
        {
          "internalType": "uint256",
          "name": "amount",
          "type": "uint256"
        }
      ],
      "name": "transfer",
      "outputs": [
        {
          "internalType": "bool",
          "name": "",
          "type": "bool"
        }
      ],
      "stateMutability": "nonpayable",
      "type": "function"
    },
    {
      "inputs": [
        {
          "internalType": "address",
          "name": "sender",
          "type": "address"
        },
        {
          "internalType": "address",
          "name": "recipient",
          "type": "address"
        },
        {
          "internalType": "uint256",
          "name": "amount",
          "type": "uint256"
        }
      ],
      "name": "transferFrom",
      "outputs": [
        {
          "internalType": "bool",
          "name": "",
          "type": "bool"
        }
      ],
      "stateMutability": "nonpayable",
      "type": "function"
    },
    {
      "inputs": [
        {
          "internalType": "uint256",
          "name": "amountOfSharesToBuy",
          "type": "uint256"
        }
      ],
      "name": "buyNftShare",
      "outputs": [],
      "stateMutability": "nonpayable",
      "type": "function"
    },
    {
      "inputs": [],
      "name": "withdrawRemainingSharesAndProfits",
      "outputs": [],
      "stateMutability": "nonpayable",
      "type": "function"
    },
    {
      "inputs": [
        {
          "internalType": "uint256",
          "name": "extraDays",
          "type": "uint256"
        }
      ],
      "name": "increaseIsoDuration",
      "outputs": [],
      "stateMutability": "nonpayable",
      "type": "function"
    },
    {
      "inputs": [
        {
          "internalType": "uint256",
          "name": "amountWillingToBuy",
          "type": "uint256"
        },
        {
          "internalType": "uint256",
          "name": "priceOfferedPerShare",
          "type": "uint256"
        }
      ],
      "name": "placeBuyOrderForSoldShares",
      "outputs": [],
      "stateMutability": "nonpayable",
      "type": "function"
    },
    {
      "inputs": [],
      "name": "cancelOrder",
      "outputs": [],
      "stateMutability": "nonpayable",
      "type": "function"
    },
    {
      "inputs": [
        {
          "internalType": "address",
          "name": "buyOrder",
          "type": "address"
        },
        {
          "internalType": "uint256",
          "name": "amountOfSharesToSell",
          "type": "uint256"
        }
      ],
      "name": "sellNftShare",
      "outputs": [],
      "stateMutability": "nonpayable",
      "type": "function"
    },
    {
      "inputs": [],
      "name": "redeemNft",
      "outputs": [],
      "stateMutability": "nonpayable",
      "type": "function"
    }
  ],
  "bytecode": "0x60806040526000600a60146101000a81548160ff0219169083151502179055506000600a60156101000a81548160ff0219169083151502179055506000600c556000600d553480156200005157600080fd5b50604051620038123803806200381283398181016040526101208110156200007857600080fd5b81019080805160405193929190846401000000008211156200009957600080fd5b83820191506020820185811115620000b057600080fd5b8251866001820283011164010000000082111715620000ce57600080fd5b8083526020830192505050908051906020019080838360005b8381101562000104578082015181840152602081019050620000e7565b50505050905090810190601f168015620001325780820380516001836020036101000a031916815260200191505b50604052602001805160405193929190846401000000008211156200015657600080fd5b838201915060208201858111156200016d57600080fd5b82518660018202830111640100000000821117156200018b57600080fd5b8083526020830192505050908051906020019080838360005b83811015620001c1578082015181840152602081019050620001a4565b50505050905090810190601f168015620001ef5780820380516001836020036101000a031916815260200191505b5060405260200180519060200190929190805190602001909291908051906020019092919080519060200190929190805190602001909291908051906020019092919080519060200190929190505050888881600390805190602001906200025992919062000507565b5080600490805190602001906200027292919062000507565b506012600560006101000a81548160ff021916908360ff16021790555050508660088190555085600960006101000a81548173ffffffffffffffffffffffffffffffffffffffff021916908373ffffffffffffffffffffffffffffffffffffffff160217905550600960009054906101000a900473ffffffffffffffffffffffffffffffffffffffff1673ffffffffffffffffffffffffffffffffffffffff166323b872dd33306008546040518463ffffffff1660e01b8152600401808473ffffffffffffffffffffffffffffffffffffffff1681526020018373ffffffffffffffffffffffffffffffffffffffff1681526020018281526020019350505050600060405180830381600087803b1580156200038d57600080fd5b505af1158015620003a2573d6000803e3d6000fd5b5050505084600a60006101000a81548173ffffffffffffffffffffffffffffffffffffffff021916908373ffffffffffffffffffffffffffffffffffffffff160217905550836006819055508260078190555081600b81905550600062015180830290506200042081426200047e60201b620021991790919060201c565b600c8190555042600d8190555081600560016101000a81548173ffffffffffffffffffffffffffffffffffffffff021916908373ffffffffffffffffffffffffffffffffffffffff16021790555050505050505050505050620005ad565b600080828401905083811015620004fd576040517f08c379a000000000000000000000000000000000000000000000000000000000815260040180806020018281038252601b8152602001807f536166654d6174683a206164646974696f6e206f766572666c6f77000000000081525060200191505060405180910390fd5b8091505092915050565b828054600181600116156101000203166002900490600052602060002090601f016020900481019282601f106200054a57805160ff19168380011785556200057b565b828001600101855582156200057b579182015b828111156200057a5782518255916020019190600101906200055d565b5b5090506200058a91906200058e565b5090565b5b80821115620005a95760008160009055506001016200058f565b5090565b61325580620005bd6000396000f3fe608060405234801561001057600080fd5b50600436106101c45760003560e01c8063796867b6116100f9578063a9059cbb11610097578063c9f9eb4a11610071578063c9f9eb4a1461078f578063dd62ed3e146107c7578063f592d47c1461083f578063f851a4401461086d576101c4565b8063a9059cbb146106df578063aeeb896014610743578063c6bc518214610771576101c4565b806393e822ce116100d357806393e822ce146105bc57806395d89b41146105da578063a457c2d71461065d578063a7505143146106c1576101c4565b8063796867b6146105325780638c7936e214610580578063939f3ff71461059e576101c4565b806339509351116101665780635f3e364a116101405780635f3e364a146104535780636a816548146104715780636d0437211461047b57806370a08231146104da576101c4565b806339509351146103875780633ad65c18146103eb57806347ccca021461041f576101c4565b806320a6ba95116101a257806320a6ba95146102ce57806323b872dd146102d8578063312de6b91461035c578063313ce56714610366576101c4565b806306fdde03146101c9578063095ea7b31461024c57806318160ddd146102b0575b600080fd5b6101d16108a1565b6040518080602001828103825283818151815260200191508051906020019080838360005b838110156102115780820151818401526020810190506101f6565b50505050905090810190601f16801561023e5780820380516001836020036101000a031916815260200191505b509250505060405180910390f35b6102986004803603604081101561026257600080fd5b81019080803573ffffffffffffffffffffffffffffffffffffffff16906020019092919080359060200190929190505050610943565b60405180821515815260200191505060405180910390f35b6102b8610961565b6040518082815260200191505060405180910390f35b6102d661096b565b005b610344600480360360608110156102ee57600080fd5b81019080803573ffffffffffffffffffffffffffffffffffffffff169060200190929190803573ffffffffffffffffffffffffffffffffffffffff16906020019092919080359060200190929190505050610be0565b60405180821515815260200191505060405180910390f35b610364610cb9565b005b61036e61108e565b604051808260ff16815260200191505060405180910390f35b6103d36004803603604081101561039d57600080fd5b81019080803573ffffffffffffffffffffffffffffffffffffffff169060200190929190803590602001909291905050506110a5565b60405180821515815260200191505060405180910390f35b6103f3611158565b604051808273ffffffffffffffffffffffffffffffffffffffff16815260200191505060405180910390f35b61042761117e565b604051808273ffffffffffffffffffffffffffffffffffffffff16815260200191505060405180910390f35b61045b6111a4565b6040518082815260200191505060405180910390f35b6104796111aa565b005b6104bd6004803603602081101561049157600080fd5b81019080803573ffffffffffffffffffffffffffffffffffffffff169060200190929190505050611458565b604051808381526020018281526020019250505060405180910390f35b61051c600480360360208110156104f057600080fd5b81019080803573ffffffffffffffffffffffffffffffffffffffff16906020019092919050505061147c565b6040518082815260200191505060405180910390f35b61057e6004803603604081101561054857600080fd5b81019080803573ffffffffffffffffffffffffffffffffffffffff169060200190929190803590602001909291905050506114c4565b005b61058861179b565b6040518082815260200191505060405180910390f35b6105a66117a1565b6040518082815260200191505060405180910390f35b6105c46117a7565b6040518082815260200191505060405180910390f35b6105e26117ad565b6040518080602001828103825283818151815260200191508051906020019080838360005b83811015610622578082015181840152602081019050610607565b50505050905090810190601f16801561064f5780820380516001836020036101000a031916815260200191505b509250505060405180910390f35b6106a96004803603604081101561067357600080fd5b81019080803573ffffffffffffffffffffffffffffffffffffffff1690602001909291908035906020019092919050505061184f565b60405180821515815260200191505060405180910390f35b6106c961191c565b6040518082815260200191505060405180910390f35b61072b600480360360408110156106f557600080fd5b81019080803573ffffffffffffffffffffffffffffffffffffffff16906020019092919080359060200190929190505050611922565b60405180821515815260200191505060405180910390f35b61076f6004803603602081101561075957600080fd5b8101908080359060200190929190505050611940565b005b610779611b37565b6040518082815260200191505060405180910390f35b6107c5600480360360408110156107a557600080fd5b810190808035906020019092919080359060200190929190505050611b3d565b005b610829600480360360408110156107dd57600080fd5b81019080803573ffffffffffffffffffffffffffffffffffffffff169060200190929190803573ffffffffffffffffffffffffffffffffffffffff169060200190929190505050611f76565b6040518082815260200191505060405180910390f35b61086b6004803603602081101561085557600080fd5b8101908080359060200190929190505050611ffd565b005b610875612173565b604051808273ffffffffffffffffffffffffffffffffffffffff16815260200191505060405180910390f35b606060038054600181600116156101000203166002900480601f0160208091040260200160405190810160405280929190818152602001828054600181600116156101000203166002900480156109395780601f1061090e57610100808354040283529160200191610939565b820191906000526020600020905b81548152906001019060200180831161091c57829003601f168201915b5050505050905090565b6000610957610950612221565b8484612229565b6001905092915050565b6000600254905090565b600c5442116109c5576040517f08c379a00000000000000000000000000000000000000000000000000000000081526004018080602001828103825260258152602001806130cf6025913960400191505060405180910390fd5b60001515600a60149054906101000a900460ff16151514610a4e576040517f08c379a000000000000000000000000000000000000000000000000000000000815260040180806020018281038252601c8152602001807f546865204e465420697320616c72656164792072656465656d6564210000000081525060200191505060405180910390fd5b600754610a5a3361147c565b14610ab0576040517f08c379a0000000000000000000000000000000000000000000000000000000008152600401808060200182810382526035815260200180612fa76035913960400191505060405180910390fd5b610abd3330600754610be0565b50600960009054906101000a900473ffffffffffffffffffffffffffffffffffffffff1673ffffffffffffffffffffffffffffffffffffffff166323b872dd30336008546040518463ffffffff1660e01b8152600401808473ffffffffffffffffffffffffffffffffffffffff1681526020018373ffffffffffffffffffffffffffffffffffffffff1681526020018281526020019350505050600060405180830381600087803b158015610b7157600080fd5b505af1158015610b85573d6000803e3d6000fd5b505050506001600a60146101000a81548160ff0219169083151502179055507f70b409e4b715cb000b6c1f9a76199683dfdb71bcaa9f97954cb22e78df6f19a9600160405180821515815260200191505060405180910390a1565b6000610bed848484612420565b610cae84610bf9612221565b610ca98560405180606001604052806028815260200161305e60289139600160008b73ffffffffffffffffffffffffffffffffffffffff1673ffffffffffffffffffffffffffffffffffffffff1681526020019081526020016000206000610c5f612221565b73ffffffffffffffffffffffffffffffffffffffff1673ffffffffffffffffffffffffffffffffffffffff168152602001908152602001600020546126e19092919063ffffffff16565b612229565b600190509392505050565b600560019054906101000a900473ffffffffffffffffffffffffffffffffffffffff1673ffffffffffffffffffffffffffffffffffffffff163373ffffffffffffffffffffffffffffffffffffffff1614610d5f576040517f08c379a0000000000000000000000000000000000000000000000000000000008152600401808060200182810382526025815260200180612f826025913960400191505060405180910390fd5b600c544211610db9576040517f08c379a00000000000000000000000000000000000000000000000000000000081526004018080602001828103825260258152602001806130cf6025913960400191505060405180910390fd5b60001515600a60159054906101000a900460ff16151514610e25576040517f08c379a00000000000000000000000000000000000000000000000000000000081526004018080602001828103825260348152602001806131a66034913960400191505060405180910390fd5b6000610e43610e32610961565b6007546127a190919063ffffffff16565b90506000816007540390506000600654820290506000811115610ed257610ed130600560019054906101000a900473ffffffffffffffffffffffffffffffffffffffff1683600a60009054906101000a900473ffffffffffffffffffffffffffffffffffffffff1673ffffffffffffffffffffffffffffffffffffffff166127eb909392919063ffffffff16565b5b600083118015610ee957506000610ee7610961565b115b15610f1b57610f1a600560019054906101000a900473ffffffffffffffffffffffffffffffffffffffff16846128ac565b5b6000610f25610961565b141561103457600960009054906101000a900473ffffffffffffffffffffffffffffffffffffffff1673ffffffffffffffffffffffffffffffffffffffff166323b872dd30600560019054906101000a900473ffffffffffffffffffffffffffffffffffffffff166008546040518463ffffffff1660e01b8152600401808473ffffffffffffffffffffffffffffffffffffffff1681526020018373ffffffffffffffffffffffffffffffffffffffff1681526020018281526020019350505050600060405180830381600087803b15801561100057600080fd5b505af1158015611014573d6000803e3d6000fd5b505050506001600a60146101000a81548160ff0219169083151502179055505b6001600a60156101000a81548160ff0219169083151502179055507f366eb3162fe5177bce6f3dbd161f3756b447223292d8455281f0e51c1b35d5f6600160405180821515815260200191505060405180910390a1505050565b6000600560009054906101000a900460ff16905090565b600061114e6110b2612221565b8461114985600160006110c3612221565b73ffffffffffffffffffffffffffffffffffffffff1673ffffffffffffffffffffffffffffffffffffffff16815260200190815260200160002060008973ffffffffffffffffffffffffffffffffffffffff1673ffffffffffffffffffffffffffffffffffffffff1681526020019081526020016000205461219990919063ffffffff16565b612229565b6001905092915050565b600a60009054906101000a900473ffffffffffffffffffffffffffffffffffffffff1681565b600960009054906101000a900473ffffffffffffffffffffffffffffffffffffffff1681565b60065481565b600c544211611204576040517f08c379a00000000000000000000000000000000000000000000000000000000081526004018080602001828103825260258152602001806130cf6025913960400191505060405180910390fd5b6000600e60003373ffffffffffffffffffffffffffffffffffffffff1673ffffffffffffffffffffffffffffffffffffffff168152602001908152602001600020600001541161129f576040517f08c379a0000000000000000000000000000000000000000000000000000000008152600401808060200182810382526021815260200180612ee76021913960400191505060405180910390fd5b6000600e60003373ffffffffffffffffffffffffffffffffffffffff1673ffffffffffffffffffffffffffffffffffffffff16815260200190815260200160002060010154600e60003373ffffffffffffffffffffffffffffffffffffffff1673ffffffffffffffffffffffffffffffffffffffff168152602001908152602001600020600001540290506113773382600a60009054906101000a900473ffffffffffffffffffffffffffffffffffffffff1673ffffffffffffffffffffffffffffffffffffffff16612a739092919063ffffffff16565b6000600e60003373ffffffffffffffffffffffffffffffffffffffff1673ffffffffffffffffffffffffffffffffffffffff168152602001908152602001600020600001819055506000600e60003373ffffffffffffffffffffffffffffffffffffffff1673ffffffffffffffffffffffffffffffffffffffff168152602001908152602001600020600101819055503373ffffffffffffffffffffffffffffffffffffffff167f351652748d8287004f56708faf022e0bda08f7a4a3f2c937b6bed9b75d5e9432826040518082815260200191505060405180910390a250565b600e6020528060005260406000206000915090508060000154908060010154905082565b60008060008373ffffffffffffffffffffffffffffffffffffffff1673ffffffffffffffffffffffffffffffffffffffff168152602001908152602001600020549050919050565b600c54421161151e576040517f08c379a00000000000000000000000000000000000000000000000000000000081526004018080602001828103825260258152602001806130cf6025913960400191505060405180910390fd5b806115283361147c565b101561157f576040517f08c379a00000000000000000000000000000000000000000000000000000000081526004018080602001828103825260288152602001806131226028913960400191505060405180910390fd5b80600e60008473ffffffffffffffffffffffffffffffffffffffff1673ffffffffffffffffffffffffffffffffffffffff16815260200190815260200160002060000154101561161a576040517f08c379a000000000000000000000000000000000000000000000000000000000815260040180806020018281038252602e8152602001806130f4602e913960400191505060405180910390fd5b6000600e60008473ffffffffffffffffffffffffffffffffffffffff1673ffffffffffffffffffffffffffffffffffffffff168152602001908152602001600020600101548202905061166e338484610be0565b506116bc3382600a60009054906101000a900473ffffffffffffffffffffffffffffffffffffffff1673ffffffffffffffffffffffffffffffffffffffff16612a739092919063ffffffff16565b61171182600e60008673ffffffffffffffffffffffffffffffffffffffff1673ffffffffffffffffffffffffffffffffffffffff168152602001908152602001600020600001546127a190919063ffffffff16565b600e60008573ffffffffffffffffffffffffffffffffffffffff1673ffffffffffffffffffffffffffffffffffffffff168152602001908152602001600020600001819055507fc2335194fb365c8c1386801ac43ad583ec96f26097a2fe651d9c35271deac49d8183604051808381526020018281526020019250505060405180910390a1505050565b600b5481565b600d5481565b600c5481565b606060048054600181600116156101000203166002900480601f0160208091040260200160405190810160405280929190818152602001828054600181600116156101000203166002900480156118455780601f1061181a57610100808354040283529160200191611845565b820191906000526020600020905b81548152906001019060200180831161182857829003601f168201915b5050505050905090565b600061191261185c612221565b8461190d856040518060600160405280602581526020016131da6025913960016000611886612221565b73ffffffffffffffffffffffffffffffffffffffff1673ffffffffffffffffffffffffffffffffffffffff16815260200190815260200160002060008a73ffffffffffffffffffffffffffffffffffffffff1673ffffffffffffffffffffffffffffffffffffffff168152602001908152602001600020546126e19092919063ffffffff16565b612229565b6001905092915050565b60075481565b600061193661192f612221565b8484612420565b6001905092915050565b600c54421061199a576040517f08c379a00000000000000000000000000000000000000000000000000000000081526004018080602001828103825260258152602001806130cf6025913960400191505060405180910390fd5b6000600d54116119f5576040517f08c379a000000000000000000000000000000000000000000000000000000000815260040180806020018281038252602f815260200180613002602f913960400191505060405180910390fd5b60075481611a01610961565b011115611a59576040517f08c379a00000000000000000000000000000000000000000000000000000000081526004018080602001828103825260218152602001806131ff6021913960400191505060405180910390fd5b600060065482029050611ad333600560019054906101000a900473ffffffffffffffffffffffffffffffffffffffff1683600a60009054906101000a900473ffffffffffffffffffffffffffffffffffffffff1673ffffffffffffffffffffffffffffffffffffffff166127eb909392919063ffffffff16565b611add33836128ac565b3373ffffffffffffffffffffffffffffffffffffffff167fd44653365217864dc4ac922dabfafe41b70900655884f6d37d5910d347c9864f8383604051808381526020018281526020019250505060405180910390a25050565b60085481565b60001515600a60149054906101000a900460ff16151514611bc6576040517f08c379a000000000000000000000000000000000000000000000000000000000815260040180806020018281038252601c8152602001807f546865204e465420697320616c72656164792072656465656d6564210000000081525060200191505060405180910390fd5b600c544211611c20576040517f08c379a00000000000000000000000000000000000000000000000000000000081526004018080602001828103825260258152602001806130cf6025913960400191505060405180910390fd5b60008211611c79576040517f08c379a00000000000000000000000000000000000000000000000000000000081526004018080602001828103825260328152602001806131746032913960400191505060405180910390fd5b60008111611cd2576040517f08c379a00000000000000000000000000000000000000000000000000000000081526004018080602001828103825260328152602001806131746032913960400191505060405180910390fd5b81611cdb610961565b1015611d32576040517f08c379a000000000000000000000000000000000000000000000000000000000815260040180806020018281038252602d815260200180613031602d913960400191505060405180910390fd5b6000818302905080600a60009054906101000a900473ffffffffffffffffffffffffffffffffffffffff1673ffffffffffffffffffffffffffffffffffffffff166370a08231336040518263ffffffff1660e01b8152600401808273ffffffffffffffffffffffffffffffffffffffff16815260200191505060206040518083038186803b158015611dc357600080fd5b505afa158015611dd7573d6000803e3d6000fd5b505050506040513d6020811015611ded57600080fd5b81019080805190602001909291905050501015611e55576040517f08c379a0000000000000000000000000000000000000000000000000000000008152600401808060200182810382526032815260200180612f086032913960400191505060405180910390fd5b611ea4333083600a60009054906101000a900473ffffffffffffffffffffffffffffffffffffffff1673ffffffffffffffffffffffffffffffffffffffff166127eb909392919063ffffffff16565b611eac612ea9565b604051806040016040528085815260200184815250905080600e60003373ffffffffffffffffffffffffffffffffffffffff1673ffffffffffffffffffffffffffffffffffffffff16815260200190815260200160002060008201518160000155602082015181600101559050503373ffffffffffffffffffffffffffffffffffffffff167f03f23a9b67af957c8605376a4f515b53f102d4ad7f4da099bd1aff8e3ee13fec8386604051808381526020018281526020019250505060405180910390a250505050565b6000600160008473ffffffffffffffffffffffffffffffffffffffff1673ffffffffffffffffffffffffffffffffffffffff16815260200190815260200160002060008373ffffffffffffffffffffffffffffffffffffffff1673ffffffffffffffffffffffffffffffffffffffff16815260200190815260200160002054905092915050565b600560019054906101000a900473ffffffffffffffffffffffffffffffffffffffff1673ffffffffffffffffffffffffffffffffffffffff163373ffffffffffffffffffffffffffffffffffffffff16146120a3576040517f08c379a0000000000000000000000000000000000000000000000000000000008152600401808060200182810382526025815260200180612f826025913960400191505060405180910390fd5b600c5442106120fd576040517f08c379a00000000000000000000000000000000000000000000000000000000081526004018080602001828103825260258152602001806130cf6025913960400191505060405180910390fd5b6000620151808202905061211c82600b5461219990919063ffffffff16565b600b8190555061213781600c5461219990919063ffffffff16565b507f84d0b2dbcb7ca31b0776b80cc84d06384552ec35c30ef40f8de565466da7a256826040518082815260200191505060405180910390a15050565b600560019054906101000a900473ffffffffffffffffffffffffffffffffffffffff1681565b600080828401905083811015612217576040517f08c379a000000000000000000000000000000000000000000000000000000000815260040180806020018281038252601b8152602001807f536166654d6174683a206164646974696f6e206f766572666c6f77000000000081525060200191505060405180910390fd5b8091505092915050565b600033905090565b600073ffffffffffffffffffffffffffffffffffffffff168373ffffffffffffffffffffffffffffffffffffffff1614156122af576040517f08c379a00000000000000000000000000000000000000000000000000000000081526004018080602001828103825260248152602001806130ab6024913960400191505060405180910390fd5b600073ffffffffffffffffffffffffffffffffffffffff168273ffffffffffffffffffffffffffffffffffffffff161415612335576040517f08c379a0000000000000000000000000000000000000000000000000000000008152600401808060200182810382526022815260200180612f3a6022913960400191505060405180910390fd5b80600160008573ffffffffffffffffffffffffffffffffffffffff1673ffffffffffffffffffffffffffffffffffffffff16815260200190815260200160002060008473ffffffffffffffffffffffffffffffffffffffff1673ffffffffffffffffffffffffffffffffffffffff168152602001908152602001600020819055508173ffffffffffffffffffffffffffffffffffffffff168373ffffffffffffffffffffffffffffffffffffffff167f8c5be1e5ebec7d5bd14f71427d1e84f3dd0314c0f7b2291e5b200ac8c7c3b925836040518082815260200191505060405180910390a3505050565b600073ffffffffffffffffffffffffffffffffffffffff168373ffffffffffffffffffffffffffffffffffffffff1614156124a6576040517f08c379a00000000000000000000000000000000000000000000000000000000081526004018080602001828103825260258152602001806130866025913960400191505060405180910390fd5b600073ffffffffffffffffffffffffffffffffffffffff168273ffffffffffffffffffffffffffffffffffffffff16141561252c576040517f08c379a0000000000000000000000000000000000000000000000000000000008152600401808060200182810382526023815260200180612ec46023913960400191505060405180910390fd5b612537838383612b15565b6125a281604051806060016040528060268152602001612f5c602691396000808773ffffffffffffffffffffffffffffffffffffffff1673ffffffffffffffffffffffffffffffffffffffff168152602001908152602001600020546126e19092919063ffffffff16565b6000808573ffffffffffffffffffffffffffffffffffffffff1673ffffffffffffffffffffffffffffffffffffffff16815260200190815260200160002081905550612635816000808573ffffffffffffffffffffffffffffffffffffffff1673ffffffffffffffffffffffffffffffffffffffff1681526020019081526020016000205461219990919063ffffffff16565b6000808473ffffffffffffffffffffffffffffffffffffffff1673ffffffffffffffffffffffffffffffffffffffff168152602001908152602001600020819055508173ffffffffffffffffffffffffffffffffffffffff168373ffffffffffffffffffffffffffffffffffffffff167fddf252ad1be2c89b69c2b068fc378daa952ba7f163c4a11628f55a4df523b3ef836040518082815260200191505060405180910390a3505050565b600083831115829061278e576040517f08c379a00000000000000000000000000000000000000000000000000000000081526004018080602001828103825283818151815260200191508051906020019080838360005b83811015612753578082015181840152602081019050612738565b50505050905090810190601f1680156127805780820380516001836020036101000a031916815260200191505b509250505060405180910390fd5b5060008385039050809150509392505050565b60006127e383836040518060400160405280601e81526020017f536166654d6174683a207375627472616374696f6e206f766572666c6f7700008152506126e1565b905092915050565b6128a6846323b872dd60e01b858585604051602401808473ffffffffffffffffffffffffffffffffffffffff1681526020018373ffffffffffffffffffffffffffffffffffffffff1681526020018281526020019350505050604051602081830303815290604052907bffffffffffffffffffffffffffffffffffffffffffffffffffffffff19166020820180517bffffffffffffffffffffffffffffffffffffffffffffffffffffffff8381831617835250505050612b1a565b50505050565b600073ffffffffffffffffffffffffffffffffffffffff168273ffffffffffffffffffffffffffffffffffffffff16141561294f576040517f08c379a000000000000000000000000000000000000000000000000000000000815260040180806020018281038252601f8152602001807f45524332303a206d696e7420746f20746865207a65726f20616464726573730081525060200191505060405180910390fd5b61295b60008383612b15565b6129708160025461219990919063ffffffff16565b6002819055506129c7816000808573ffffffffffffffffffffffffffffffffffffffff1673ffffffffffffffffffffffffffffffffffffffff1681526020019081526020016000205461219990919063ffffffff16565b6000808473ffffffffffffffffffffffffffffffffffffffff1673ffffffffffffffffffffffffffffffffffffffff168152602001908152602001600020819055508173ffffffffffffffffffffffffffffffffffffffff16600073ffffffffffffffffffffffffffffffffffffffff167fddf252ad1be2c89b69c2b068fc378daa952ba7f163c4a11628f55a4df523b3ef836040518082815260200191505060405180910390a35050565b612b108363a9059cbb60e01b8484604051602401808373ffffffffffffffffffffffffffffffffffffffff16815260200182815260200192505050604051602081830303815290604052907bffffffffffffffffffffffffffffffffffffffffffffffffffffffff19166020820180517bffffffffffffffffffffffffffffffffffffffffffffffffffffffff8381831617835250505050612b1a565b505050565b505050565b6060612b7c826040518060400160405280602081526020017f5361666545524332303a206c6f772d6c6576656c2063616c6c206661696c65648152508573ffffffffffffffffffffffffffffffffffffffff16612c099092919063ffffffff16565b9050600081511115612c0457808060200190516020811015612b9d57600080fd5b8101908080519060200190929190505050612c03576040517f08c379a000000000000000000000000000000000000000000000000000000000815260040180806020018281038252602a81526020018061314a602a913960400191505060405180910390fd5b5b505050565b6060612c188484600085612c21565b90509392505050565b606082471015612c7c576040517f08c379a0000000000000000000000000000000000000000000000000000000008152600401808060200182810382526026815260200180612fdc6026913960400191505060405180910390fd5b612c8585612dca565b612cf7576040517f08c379a000000000000000000000000000000000000000000000000000000000815260040180806020018281038252601d8152602001807f416464726573733a2063616c6c20746f206e6f6e2d636f6e747261637400000081525060200191505060405180910390fd5b600060608673ffffffffffffffffffffffffffffffffffffffff1685876040518082805190602001908083835b60208310612d475780518252602082019150602081019050602083039250612d24565b6001836020036101000a03801982511681845116808217855250505050505090500191505060006040518083038185875af1925050503d8060008114612da9576040519150601f19603f3d011682016040523d82523d6000602084013e612dae565b606091505b5091509150612dbe828286612ddd565b92505050949350505050565b600080823b905060008111915050919050565b60608315612ded57829050612ea2565b600083511115612e005782518084602001fd5b816040517f08c379a00000000000000000000000000000000000000000000000000000000081526004018080602001828103825283818151815260200191508051906020019080838360005b83811015612e67578082015181840152602081019050612e4c565b50505050905090810190601f168015612e945780820380516001836020036101000a031916815260200191505b509250505060405180910390fd5b9392505050565b60405180604001604052806000815260200160008152509056fe45524332303a207472616e7366657220746f20746865207a65726f2061646472657373596f752068617665206e6f206f70656e206f726465727320746f2063616e63656c596f752068617665206e6f7420656e6f75676820746f6b656e7320746f20706c6163652074686520627579206f726465722e45524332303a20617070726f766520746f20746865207a65726f206164647265737345524332303a207472616e7366657220616d6f756e7420657863656564732062616c616e63654f6e6c79207468652061646d696e20697320616c6c6f77656420746f20646f207468697321596f75206e65656420616c6c204e46542073686172657320746f2072656465656d2074686520756e6465726c79696e67204e46542e416464726573733a20696e73756666696369656e742062616c616e636520666f722063616c6c4e667420696e697469616c207368617265206f66666572696e6720686173206e6f742073746172746564207965742e546865726520617265206e6f7420656e6f75676820736861726573206f757420746865726520746f206275792e45524332303a207472616e7366657220616d6f756e74206578636565647320616c6c6f77616e636545524332303a207472616e736665722066726f6d20746865207a65726f206164647265737345524332303a20617070726f76652066726f6d20746865207a65726f20616464726573734e667420696e697469616c207368617265206f66666572696e672068617320656e6465642e54686973206f7264657220646f6573206e6f742077616e7420746f2062757920656e6f756768207368617265732e596f7520646f6e74206861766520656e6f756768204e66742073686172657320746f2073656c6c2e5361666545524332303a204552433230206f7065726174696f6e20646964206e6f742073756363656564596f75206e65656420746f20706c61636520616e206f7264657220666f72206d6f7265207468656e2030207368617265732e596f752063616e206f6e6c792072656465656d207468652070726f6669747320616e64206c656674206f76657273206f6e63652e45524332303a2064656372656173656420616c6c6f77616e63652062656c6f77207a65726f546865726520617265206e6f7420656e6f75676820736861726573206c6566742ea26469706673582212208046378c82133e9289d22adf4785bd319b4b5e1c17fd2aa66ad019d31bcd0d2c64736f6c63430007030033",
  "immutableReferences": {},
  "source": "// SPDX-License-Identifier: MIT\r\n\r\n// This is the V1 of the NFT shares contract.\r\n// The NFT shares contract allow you do split an NFT into multiple ERC20 shares\r\n// After the initial offering has ended the admin can take out the proceeds and remaining shares\r\n// After the initial offering any one can create a buy order for one of the shares\r\n// If you onw one of the shares you can sell it to one of the buyers\r\n// If you own all shares you can redeem the NFT token\r\n\r\n\r\npragma solidity ^0.7.3;\r\n\r\n\r\nimport '@openzeppelin/contracts/token/ERC721/IERC721.sol';\r\nimport '@openzeppelin/contracts/token/ERC20/SafeERC20.sol';\r\nimport '@openzeppelin/contracts/token/ERC20/IERC20.sol';\r\nimport '@openzeppelin/contracts/token/ERC20/ERC20.sol';\r\nimport '@openzeppelin/contracts/utils/Address.sol';\r\nimport '@openzeppelin/contracts/math/SafeMath.sol';\r\nimport '@openzeppelin/contracts/math/Math.sol';\r\n\r\ncontract NftSharesV1 is ERC20 {\r\n    // Using statements\r\n    using SafeMath for uint;\r\n    using SafeERC20 for IERC20;\r\n    using Address for address;\r\n\r\n    /*********************************\r\n        Contract State variables \r\n    *********************************/\r\n\r\n    // The admin / deployer of the inital share offering \r\n    address public admin;\r\n\r\n    // The initial share price and the total amount of shares\r\n    uint public initialSharePrice;\r\n    uint public totalAmountOfNftShares;\r\n    \r\n    // The NFT and share buying token data\r\n    uint public nftId;\r\n    IERC721 public nft;\r\n    IERC20 public tokenToBuyWIth;\r\n\r\n    // Boolean that changes when the NFT is redeemed\r\n    bool nftIsRedeemed = false;\r\n    bool adminHasRedeemedProfits = false;\r\n\r\n    // Initial share offering duration parameters\r\n    uint public intialShareOfferingDurationInDays;\r\n    uint public endOfInitalShareOffering = 0;\r\n    uint public initialShareOfferingStartTime = 0;\r\n\r\n    // Struct of a buy oder to buy a share after the ISO has concluded \r\n    struct BuyOrder {\r\n        uint amountToBuy;\r\n        uint pricePerShare;\r\n    }\r\n\r\n    /***********************\r\n            Modifiers \r\n    ***********************/\r\n\r\n    // The created buy orders\r\n    mapping(address => BuyOrder) public buyOrders;\r\n\r\n    // Only admin modifer, guards function so only the admin can call them\r\n    modifier onlyAdmin() {\r\n        require(msg.sender == admin, 'Only the admin is allowed to do this!');\r\n        _;\r\n    }\r\n\r\n    modifier isoNotEnded() {\r\n        require(block.timestamp < endOfInitalShareOffering, 'Nft initial share offering has ended.');\r\n        _;\r\n    }\r\n\r\n    modifier isoHasEnded() {\r\n        require(block.timestamp > endOfInitalShareOffering, 'Nft initial share offering has ended.');\r\n        _;\r\n    }\r\n\r\n    modifier onlyIfNftNotRedeemed() {\r\n        require(nftIsRedeemed == false, 'The NFT is already redeemed!');\r\n        _;\r\n    }\r\n\r\n    // Constructor for the contract and the ERC20 created for the shared\r\n    constructor(\r\n        string memory _shareName, \r\n        string memory _shareSymbol, \r\n        uint _nftId,\r\n        address _nftTokenAddress, \r\n        address _tokenToBuyWith,\r\n        uint _initialSharePrice,\r\n        uint _totalAmountOfNftShares,\r\n        uint _durationInDays,\r\n        address _admin\r\n    ) ERC20(_shareName, _shareSymbol) {\r\n        // Set the NFT data and transfer it to the contract\r\n        nftId = _nftId;\r\n        nft = IERC721(_nftTokenAddress);\r\n        nft.transferFrom(msg.sender, address(this), nftId);\r\n\r\n        // Set the token to buy the shares with\r\n        tokenToBuyWIth = IERC20(_tokenToBuyWith);\r\n\r\n        // Set the inital share offering data\r\n        initialSharePrice = _initialSharePrice;\r\n        totalAmountOfNftShares = _totalAmountOfNftShares;\r\n        intialShareOfferingDurationInDays = _durationInDays;\r\n        uint durationToAdd = _durationInDays * 86400;\r\n        endOfInitalShareOffering = block.timestamp.add(durationToAdd);\r\n        initialShareOfferingStartTime = block.timestamp;\r\n\r\n        // Set the admin of the contract\r\n        admin = _admin;\r\n\r\n    }\r\n\r\n    /***********************\r\n     external view returns \r\n    ***********************/\r\n\r\n    // Buy a share of the NFT in the initial share offering\r\n    function buyNftShare(uint amountOfSharesToBuy) external isoNotEnded {\r\n        require(initialShareOfferingStartTime > 0, 'Nft initial share offering has not started yet.');\r\n        require(totalSupply() + amountOfSharesToBuy <= totalAmountOfNftShares, 'There are not enough shares left.');\r\n\r\n        uint totalPriceForShares = amountOfSharesToBuy * initialSharePrice;\r\n        tokenToBuyWIth.safeTransferFrom(msg.sender, admin, totalPriceForShares);\r\n        _mint(msg.sender, amountOfSharesToBuy);\r\n        emit boughtSharesFromIso(msg.sender, amountOfSharesToBuy, totalPriceForShares);\r\n    }\r\n\r\n    // Withdraw any ramaining shares after the initial share offering has ended\r\n    function withdrawRemainingSharesAndProfits() external onlyAdmin isoHasEnded {\r\n        require(adminHasRedeemedProfits == false, 'You can only redeem the profits and left overs once.');\r\n\r\n        uint unsoldRftShares = totalAmountOfNftShares.sub(totalSupply());\r\n        uint soldShared = totalAmountOfNftShares - unsoldRftShares;\r\n        uint payOutAmount = soldShared * initialSharePrice;\r\n\r\n        if (payOutAmount > 0) {\r\n            tokenToBuyWIth.safeTransferFrom(address(this), admin, payOutAmount);\r\n        }\r\n\r\n        if (unsoldRftShares > 0 && totalSupply() > 0) {\r\n            _mint(admin, unsoldRftShares);\r\n        }\r\n\r\n        // If no shares are sold, send the NFT back as well\r\n        if (totalSupply() == 0) {\r\n            nft.transferFrom(address(this), admin, nftId);\r\n            nftIsRedeemed = true;\r\n        }\r\n\r\n        adminHasRedeemedProfits = true;\r\n        emit succesfullyWithdrawn(true);\r\n    }\r\n\r\n    // increase the duration of the intial offering\r\n    function increaseIsoDuration(uint extraDays) external onlyAdmin isoNotEnded {\r\n        uint timeToAdd = extraDays * 86400;\r\n        intialShareOfferingDurationInDays = intialShareOfferingDurationInDays.add(extraDays);\r\n        endOfInitalShareOffering.add(timeToAdd);\r\n        emit IsoDurationIncreaed(extraDays);\r\n    }\r\n\r\n    // Create a buy order for NFT shares after the initial offering has ended\r\n    function placeBuyOrderForSoldShares(uint amountWillingToBuy, uint priceOfferedPerShare) external onlyIfNftNotRedeemed isoHasEnded {\r\n        require(amountWillingToBuy > 0, 'You need to place an order for more then 0 shares.');\r\n        require(priceOfferedPerShare > 0, 'You need to place an order for more then 0 shares.');\r\n        require(totalSupply() >= amountWillingToBuy, 'There are not enough shares out there to buy.');\r\n\r\n        uint totalOrderAmount = amountWillingToBuy * priceOfferedPerShare;\r\n        require(tokenToBuyWIth.balanceOf(msg.sender) >= totalOrderAmount, 'You have not enough tokens to place the buy order.');\r\n\r\n        tokenToBuyWIth.safeTransferFrom(msg.sender, address(this), totalOrderAmount);\r\n        BuyOrder memory createdOrder = BuyOrder({ amountToBuy: amountWillingToBuy, pricePerShare: priceOfferedPerShare });\r\n        buyOrders[msg.sender] = createdOrder;\r\n        emit OrderPlaced(msg.sender, totalOrderAmount, amountWillingToBuy);\r\n    }\r\n\r\n    // Cancel the buy order you placed\r\n    function cancelOrder() external isoHasEnded {\r\n        require(buyOrders[msg.sender].amountToBuy > 0, 'You have no open orders to cancel');\r\n        uint amountToReceiveBackFromContract = buyOrders[msg.sender].amountToBuy * buyOrders[msg.sender].pricePerShare;\r\n        tokenToBuyWIth.safeTransfer(msg.sender, amountToReceiveBackFromContract);\r\n        buyOrders[msg.sender].amountToBuy = 0;\r\n        buyOrders[msg.sender].pricePerShare = 0;\r\n        emit orderCanceled(msg.sender, amountToReceiveBackFromContract);\r\n    }\r\n\r\n    // Sell you NFT shares to one of the buy orders\r\n    function sellNftShare(address buyOrder, uint amountOfSharesToSell) external isoHasEnded {\r\n        require(balanceOf(msg.sender) >= amountOfSharesToSell, 'You dont have enough Nft shares to sell.');\r\n        require(buyOrders[buyOrder].amountToBuy >= amountOfSharesToSell, 'This order does not want to buy enough shares.');\r\n        \r\n        uint totalAmountToReceive = amountOfSharesToSell * buyOrders[buyOrder].pricePerShare;\r\n\r\n        transferFrom(msg.sender, buyOrder, amountOfSharesToSell);\r\n        tokenToBuyWIth.safeTransfer(msg.sender, totalAmountToReceive);\r\n        buyOrders[buyOrder].amountToBuy = buyOrders[buyOrder].amountToBuy.sub(amountOfSharesToSell);\r\n        emit NftShareSold(totalAmountToReceive, amountOfSharesToSell);\r\n    }\r\n\r\n    // If you own all NFT shares you can redeem the underlying NFT\r\n    function redeemNft() external isoHasEnded onlyIfNftNotRedeemed {\r\n        require(balanceOf(msg.sender) == totalAmountOfNftShares, 'You need all NFT shares to redeem the underlying NFT.');\r\n        \r\n        // Transfer the shares back to the contract and the NFT to the msg.sender\r\n        transferFrom(msg.sender, address(this), totalAmountOfNftShares);\r\n        nft.transferFrom(address(this), msg.sender, nftId);\r\n        nftIsRedeemed = true;\r\n        emit NftRedeemed(true);\r\n    }\r\n\r\n    /*********************\r\n            EVENTS \r\n    *********************/\r\n    event NftRedeemed(bool success);\r\n    event succesfullyWithdrawn(bool success);\r\n    event IsoDurationIncreaed(uint durationAdded);\r\n    event NftShareSold(uint totalAmountToReceive, uint amountSold);\r\n    event orderCanceled(address indexed user, uint amountReceived);\r\n    event OrderPlaced(address indexed user, uint amountInContract, uint amountToReceive);\r\n    event boughtSharesFromIso(address indexed user, uint amountBought, uint amountPaid);\r\n}",
  "sourcePath": "C:\\Users\\Roberto\\Documents\\Programmeer Projecten\\Solidity - ETH\\DefiHub\\contracts\\NftSharesV1.sol",
  "compiler": {
    "name": "solc",
    "version": "0.7.3+commit.9bfce1f6.Emscripten.clang"
  },
  "schemaVersion": "3.3.1",
  "updatedAt": "2020-12-21T20:53:47.506Z",
  "devdoc": {
    "kind": "dev",
    "methods": {
      "allowance(address,address)": {
        "details": "See {IERC20-allowance}."
      },
      "approve(address,uint256)": {
        "details": "See {IERC20-approve}. Requirements: - `spender` cannot be the zero address."
      },
      "balanceOf(address)": {
        "details": "See {IERC20-balanceOf}."
      },
      "decimals()": {
        "details": "Returns the number of decimals used to get its user representation. For example, if `decimals` equals `2`, a balance of `505` tokens should be displayed to a user as `5,05` (`505 / 10 ** 2`). Tokens usually opt for a value of 18, imitating the relationship between Ether and Wei. This is the value {ERC20} uses, unless {_setupDecimals} is called. NOTE: This information is only used for _display_ purposes: it in no way affects any of the arithmetic of the contract, including {IERC20-balanceOf} and {IERC20-transfer}."
      },
      "decreaseAllowance(address,uint256)": {
        "details": "Atomically decreases the allowance granted to `spender` by the caller. This is an alternative to {approve} that can be used as a mitigation for problems described in {IERC20-approve}. Emits an {Approval} event indicating the updated allowance. Requirements: - `spender` cannot be the zero address. - `spender` must have allowance for the caller of at least `subtractedValue`."
      },
      "increaseAllowance(address,uint256)": {
        "details": "Atomically increases the allowance granted to `spender` by the caller. This is an alternative to {approve} that can be used as a mitigation for problems described in {IERC20-approve}. Emits an {Approval} event indicating the updated allowance. Requirements: - `spender` cannot be the zero address."
      },
      "name()": {
        "details": "Returns the name of the token."
      },
      "symbol()": {
        "details": "Returns the symbol of the token, usually a shorter version of the name."
      },
      "totalSupply()": {
        "details": "See {IERC20-totalSupply}."
      },
      "transfer(address,uint256)": {
        "details": "See {IERC20-transfer}. Requirements: - `recipient` cannot be the zero address. - the caller must have a balance of at least `amount`."
      },
      "transferFrom(address,address,uint256)": {
        "details": "See {IERC20-transferFrom}. Emits an {Approval} event indicating the updated allowance. This is not required by the EIP. See the note at the beginning of {ERC20}. Requirements: - `sender` and `recipient` cannot be the zero address. - `sender` must have a balance of at least `amount`. - the caller must have allowance for ``sender``'s tokens of at least `amount`."
      }
    },
    "version": 1
  },
  "userdoc": {
    "kind": "user",
    "methods": {},
    "version": 1
  }
}